{
  "_format": "hh-sol-artifact-1",
  "contractName": "NFTMarketplace",
  "sourceName": "contracts/marketContract.sol",
  "abi": [
    {
      "inputs": [
        {
          "internalType": "address",
          "name": "_nftAddress",
          "type": "address"
        },
        {
          "internalType": "address",
          "name": "_tokenAddress",
          "type": "address"
        }
      ],
      "stateMutability": "nonpayable",
      "type": "constructor"
    },
    {
      "anonymous": false,
      "inputs": [
        {
          "indexed": true,
          "internalType": "uint256",
          "name": "tokenId",
          "type": "uint256"
        },
        {
          "indexed": false,
          "internalType": "address",
          "name": "seller",
          "type": "address"
        },
        {
          "indexed": false,
          "internalType": "uint256",
          "name": "price",
          "type": "uint256"
        }
      ],
      "name": "NFTListedSuccess",
      "type": "event"
    },
    {
      "anonymous": false,
      "inputs": [
        {
          "indexed": true,
          "internalType": "address",
          "name": "previousOwner",
          "type": "address"
        },
        {
          "indexed": true,
          "internalType": "address",
          "name": "newOwner",
          "type": "address"
        }
      ],
      "name": "OwnershipTransferred",
      "type": "event"
    },
    {
      "inputs": [
        {
          "internalType": "uint256",
          "name": "_tokenId",
          "type": "uint256"
        }
      ],
      "name": "buyNFT",
      "outputs": [],
      "stateMutability": "payable",
      "type": "function"
    },
    {
      "inputs": [
        {
          "internalType": "uint256",
          "name": "_tokenId",
          "type": "uint256"
        }
      ],
      "name": "cancelListedNFT",
      "outputs": [],
      "stateMutability": "nonpayable",
      "type": "function"
    },
    {
      "inputs": [
        {
          "internalType": "uint256",
          "name": "_tokenId",
          "type": "uint256"
        },
        {
          "internalType": "uint256",
          "name": "_price",
          "type": "uint256"
        }
      ],
      "name": "editPrice",
      "outputs": [],
      "stateMutability": "nonpayable",
      "type": "function"
    },
    {
      "inputs": [],
      "name": "getNFTs",
      "outputs": [
        {
          "internalType": "uint256[]",
          "name": "",
          "type": "uint256[]"
        }
      ],
      "stateMutability": "view",
      "type": "function"
    },
    {
      "inputs": [
        {
          "internalType": "uint256",
          "name": "_tokenId",
          "type": "uint256"
        }
      ],
      "name": "getPrice",
      "outputs": [
        {
          "internalType": "uint256",
          "name": "",
          "type": "uint256"
        }
      ],
      "stateMutability": "view",
      "type": "function"
    },
    {
      "inputs": [
        {
          "internalType": "uint256",
          "name": "",
          "type": "uint256"
        }
      ],
      "name": "idToListedNFT",
      "outputs": [
        {
          "internalType": "uint256",
          "name": "tokenId",
          "type": "uint256"
        },
        {
          "internalType": "address payable",
          "name": "seller",
          "type": "address"
        },
        {
          "internalType": "uint256",
          "name": "price",
          "type": "uint256"
        }
      ],
      "stateMutability": "view",
      "type": "function"
    },
    {
      "inputs": [
        {
          "internalType": "uint256",
          "name": "_tokenId",
          "type": "uint256"
        },
        {
          "internalType": "uint256",
          "name": "_price",
          "type": "uint256"
        }
      ],
      "name": "listedNFT",
      "outputs": [],
      "stateMutability": "nonpayable",
      "type": "function"
    },
    {
      "inputs": [
        {
          "internalType": "uint256",
          "name": "",
          "type": "uint256"
        }
      ],
      "name": "listedNFTs",
      "outputs": [
        {
          "internalType": "uint256",
          "name": "",
          "type": "uint256"
        }
      ],
      "stateMutability": "view",
      "type": "function"
    },
    {
      "inputs": [],
      "name": "nft",
      "outputs": [
        {
          "internalType": "contract NFTSplittingME",
          "name": "",
          "type": "address"
        }
      ],
      "stateMutability": "view",
      "type": "function"
    },
    {
      "inputs": [],
      "name": "owner",
      "outputs": [
        {
          "internalType": "address",
          "name": "",
          "type": "address"
        }
      ],
      "stateMutability": "view",
      "type": "function"
    },
    {
      "inputs": [],
      "name": "platformFee",
      "outputs": [
        {
          "internalType": "uint256",
          "name": "",
          "type": "uint256"
        }
      ],
      "stateMutability": "view",
      "type": "function"
    },
    {
      "inputs": [],
      "name": "renounceOwnership",
      "outputs": [],
      "stateMutability": "nonpayable",
      "type": "function"
    },
    {
      "inputs": [
        {
          "internalType": "uint256",
          "name": "_platformFee",
          "type": "uint256"
        }
      ],
      "name": "setPlatformFee",
      "outputs": [],
      "stateMutability": "nonpayable",
      "type": "function"
    },
    {
      "inputs": [],
      "name": "token",
      "outputs": [
        {
          "internalType": "contract USDT",
          "name": "",
          "type": "address"
        }
      ],
      "stateMutability": "view",
      "type": "function"
    },
    {
      "inputs": [],
      "name": "totalNFTs",
      "outputs": [
        {
          "internalType": "uint256",
          "name": "",
          "type": "uint256"
        }
      ],
      "stateMutability": "view",
      "type": "function"
    },
    {
      "inputs": [
        {
          "internalType": "address",
          "name": "newOwner",
          "type": "address"
        }
      ],
      "name": "transferOwnership",
      "outputs": [],
      "stateMutability": "nonpayable",
      "type": "function"
    }
  ],
  "bytecode": "0x60806040523480156200001157600080fd5b506040516200221338038062002213833981810160405281019062000037919062000260565b620000576200004b6200012a60201b60201c565b6200013260201b60201c565b600560028190555081600360006101000a81548173ffffffffffffffffffffffffffffffffffffffff021916908373ffffffffffffffffffffffffffffffffffffffff16021790555080600460006101000a81548173ffffffffffffffffffffffffffffffffffffffff021916908373ffffffffffffffffffffffffffffffffffffffff16021790555033600760006101000a81548173ffffffffffffffffffffffffffffffffffffffff021916908373ffffffffffffffffffffffffffffffffffffffff1602179055505050620002a7565b600033905090565b60008060009054906101000a900473ffffffffffffffffffffffffffffffffffffffff169050816000806101000a81548173ffffffffffffffffffffffffffffffffffffffff021916908373ffffffffffffffffffffffffffffffffffffffff1602179055508173ffffffffffffffffffffffffffffffffffffffff168173ffffffffffffffffffffffffffffffffffffffff167f8be0079c531659141344cd1fd0a4f28419497f9722a3daafe3b4186f6b6457e060405160405180910390a35050565b600080fd5b600073ffffffffffffffffffffffffffffffffffffffff82169050919050565b60006200022882620001fb565b9050919050565b6200023a816200021b565b81146200024657600080fd5b50565b6000815190506200025a816200022f565b92915050565b600080604083850312156200027a5762000279620001f6565b5b60006200028a8582860162000249565b92505060206200029d8582860162000249565b9150509250929050565b611f5c80620002b76000396000f3fe6080604052600436106100f35760003560e01c80638da5cb5b1161008a578063d0e7a5cb11610059578063d0e7a5cb146102f9578063e757223014610322578063f2fde38b1461035f578063fc0c546a14610388576100f3565b80638da5cb5b14610229578063a01dc41f14610254578063a448951514610291578063b6e85628146102d0576100f3565b806347ccca02116100c657806347ccca02146101a257806351ed8288146101cd57806355e58ff8146101e9578063715018a614610212576100f3565b80630d0e96da146100f857806312e8e2c314610123578063227212f21461014c57806326232a2e14610177575b600080fd5b34801561010457600080fd5b5061010d6103b3565b60405161011a9190611501565b60405180910390f35b34801561012f57600080fd5b5061014a6004803603810190610145919061154d565b6103b9565b005b34801561015857600080fd5b506101616103e6565b60405161016e9190611638565b60405180910390f35b34801561018357600080fd5b5061018c61043e565b6040516101999190611501565b60405180910390f35b3480156101ae57600080fd5b506101b7610444565b6040516101c491906116d9565b60405180910390f35b6101e760048036038101906101e2919061154d565b61046a565b005b3480156101f557600080fd5b50610210600480360381019061020b919061154d565b610919565b005b34801561021e57600080fd5b50610227610bd8565b005b34801561023557600080fd5b5061023e610bec565b60405161024b9190611715565b60405180910390f35b34801561026057600080fd5b5061027b6004803603810190610276919061154d565b610c15565b6040516102889190611501565b60405180910390f35b34801561029d57600080fd5b506102b860048036038101906102b3919061154d565b610c39565b6040516102c793929190611751565b60405180910390f35b3480156102dc57600080fd5b506102f760048036038101906102f29190611788565b610c83565b005b34801561030557600080fd5b50610320600480360381019061031b9190611788565b6110e4565b005b34801561032e57600080fd5b506103496004803603810190610344919061154d565b61127d565b6040516103569190611501565b60405180910390f35b34801561036b57600080fd5b50610386600480360381019061038191906117f4565b6112f5565b005b34801561039457600080fd5b5061039d611378565b6040516103aa9190611842565b60405180910390f35b60015481565b6103c161139e565b600081101580156103d3575060648111155b6103dc57600080fd5b8060028190555050565b6060600680548060200260200160405190810160405280929190818152602001828054801561043457602002820191906000526020600020905b815481526020019060010190808311610420575b5050505050905090565b60025481565b600360009054906101000a900473ffffffffffffffffffffffffffffffffffffffff1681565b60006005600083815260200190815260200160002060000154036104c3576040517f08c379a00000000000000000000000000000000000000000000000000000000081526004016104ba906118ba565b60405180910390fd5b3373ffffffffffffffffffffffffffffffffffffffff166005600083815260200190815260200160002060010160009054906101000a900473ffffffffffffffffffffffffffffffffffffffff1673ffffffffffffffffffffffffffffffffffffffff1603610567576040517f08c379a000000000000000000000000000000000000000000000000000000000815260040161055e90611926565b60405180910390fd5b60006005600083815260200190815260200160002060010160009054906101000a900473ffffffffffffffffffffffffffffffffffffffff16905060006005600084815260200190815260200160002060020154905060006064600254836105cf9190611975565b6105d991906119e6565b9050600081836105e99190611a17565b9050600460009054906101000a900473ffffffffffffffffffffffffffffffffffffffff1673ffffffffffffffffffffffffffffffffffffffff166323b872dd3386846040518463ffffffff1660e01b815260040161064a93929190611a4b565b6020604051808303816000875af1158015610669573d6000803e3d6000fd5b505050506040513d601f19601f8201168201806040525081019061068d9190611aba565b50600460009054906101000a900473ffffffffffffffffffffffffffffffffffffffff1673ffffffffffffffffffffffffffffffffffffffff166323b872dd33600760009054906101000a900473ffffffffffffffffffffffffffffffffffffffff16856040518463ffffffff1660e01b815260040161070f93929190611a4b565b6020604051808303816000875af115801561072e573d6000803e3d6000fd5b505050506040513d601f19601f820116820180604052508101906107529190611aba565b50600360009054906101000a900473ffffffffffffffffffffffffffffffffffffffff1673ffffffffffffffffffffffffffffffffffffffff166323b872dd3033886040518463ffffffff1660e01b81526004016107b293929190611a4b565b600060405180830381600087803b1580156107cc57600080fd5b505af11580156107e0573d6000803e3d6000fd5b50505050600560008681526020019081526020016000206000808201600090556001820160006101000a81549073ffffffffffffffffffffffffffffffffffffffff02191690556002820160009055505060005b6006805490508110156108f857856006828154811061085657610855611ae7565b5b9060005260206000200154036108e5576006600160068054905061087a9190611a17565b8154811061088b5761088a611ae7565b5b9060005260206000200154600682815481106108aa576108a9611ae7565b5b906000526020600020018190555060068054806108ca576108c9611b16565b5b600190038181906000526020600020016000905590556108f8565b80806108f090611b45565b915050610834565b50600180600082825461090b9190611a17565b925050819055505050505050565b6000600560008381526020019081526020016000206000015403610972576040517f08c379a0000000000000000000000000000000000000000000000000000000008152600401610969906118ba565b60405180910390fd5b3373ffffffffffffffffffffffffffffffffffffffff166005600083815260200190815260200160002060010160009054906101000a900473ffffffffffffffffffffffffffffffffffffffff1673ffffffffffffffffffffffffffffffffffffffff1614610a16576040517f08c379a0000000000000000000000000000000000000000000000000000000008152600401610a0d90611bff565b60405180910390fd5b600360009054906101000a900473ffffffffffffffffffffffffffffffffffffffff1673ffffffffffffffffffffffffffffffffffffffff166323b872dd3033846040518463ffffffff1660e01b8152600401610a7593929190611a4b565b600060405180830381600087803b158015610a8f57600080fd5b505af1158015610aa3573d6000803e3d6000fd5b50505050600560008281526020019081526020016000206000808201600090556001820160006101000a81549073ffffffffffffffffffffffffffffffffffffffff02191690556002820160009055505060005b600680549050811015610bbb578160068281548110610b1957610b18611ae7565b5b906000526020600020015403610ba85760066001600680549050610b3d9190611a17565b81548110610b4e57610b4d611ae7565b5b906000526020600020015460068281548110610b6d57610b6c611ae7565b5b90600052602060002001819055506006805480610b8d57610b8c611b16565b5b60019003818190600052602060002001600090559055610bbb565b8080610bb390611b45565b915050610af7565b506001806000828254610bce9190611a17565b9250508190555050565b610be061139e565b610bea600061141c565b565b60008060009054906101000a900473ffffffffffffffffffffffffffffffffffffffff16905090565b60068181548110610c2557600080fd5b906000526020600020016000915090505481565b60056020528060005260406000206000915090508060000154908060010160009054906101000a900473ffffffffffffffffffffffffffffffffffffffff16908060020154905083565b3373ffffffffffffffffffffffffffffffffffffffff16600360009054906101000a900473ffffffffffffffffffffffffffffffffffffffff1673ffffffffffffffffffffffffffffffffffffffff16636352211e846040518263ffffffff1660e01b8152600401610cf59190611501565b602060405180830381865afa158015610d12573d6000803e3d6000fd5b505050506040513d601f19601f82011682018060405250810190610d369190611c34565b73ffffffffffffffffffffffffffffffffffffffff1614610d8c576040517f08c379a0000000000000000000000000000000000000000000000000000000008152600401610d8390611bff565b60405180910390fd5b3073ffffffffffffffffffffffffffffffffffffffff16600360009054906101000a900473ffffffffffffffffffffffffffffffffffffffff1673ffffffffffffffffffffffffffffffffffffffff1663081812fc846040518263ffffffff1660e01b8152600401610dfe9190611501565b602060405180830381865afa158015610e1b573d6000803e3d6000fd5b505050506040513d601f19601f82011682018060405250810190610e3f9190611c34565b73ffffffffffffffffffffffffffffffffffffffff1614610e95576040517f08c379a0000000000000000000000000000000000000000000000000000000008152600401610e8c90611cd3565b60405180910390fd5b60008111610ed8576040517f08c379a0000000000000000000000000000000000000000000000000000000008152600401610ecf90611d3f565b60405180910390fd5b6000600560008481526020019081526020016000206000015414610f31576040517f08c379a0000000000000000000000000000000000000000000000000000000008152600401610f2890611dab565b60405180910390fd5b600360009054906101000a900473ffffffffffffffffffffffffffffffffffffffff1673ffffffffffffffffffffffffffffffffffffffff166323b872dd3330856040518463ffffffff1660e01b8152600401610f9093929190611a4b565b600060405180830381600087803b158015610faa57600080fd5b505af1158015610fbe573d6000803e3d6000fd5b5050505060405180606001604052808381526020013373ffffffffffffffffffffffffffffffffffffffff16815260200182815250600560008481526020019081526020016000206000820151816000015560208201518160010160006101000a81548173ffffffffffffffffffffffffffffffffffffffff021916908373ffffffffffffffffffffffffffffffffffffffff1602179055506040820151816002015590505060018060008282546110769190611dcb565b925050819055506006829080600181540180825580915050600190039060005260206000200160009091909190915055817f11f40f2a21302695e96ea2fb5f618a930b1c7454a3033a7b1bc89d7090d722c733836040516110d8929190611dff565b60405180910390a25050565b600060056000848152602001908152602001600020600001540361113d576040517f08c379a0000000000000000000000000000000000000000000000000000000008152600401611134906118ba565b60405180910390fd5b3373ffffffffffffffffffffffffffffffffffffffff166005600084815260200190815260200160002060010160009054906101000a900473ffffffffffffffffffffffffffffffffffffffff1673ffffffffffffffffffffffffffffffffffffffff16146111e1576040517f08c379a00000000000000000000000000000000000000000000000000000000081526004016111d890611bff565b60405180910390fd5b60008111611224576040517f08c379a000000000000000000000000000000000000000000000000000000000815260040161121b90611d3f565b60405180910390fd5b806005600084815260200190815260200160002060020181905550817f11f40f2a21302695e96ea2fb5f618a930b1c7454a3033a7b1bc89d7090d722c73383604051611271929190611dff565b60405180910390a25050565b6000806005600084815260200190815260200160002060000154036112d7576040517f08c379a00000000000000000000000000000000000000000000000000000000081526004016112ce906118ba565b60405180910390fd5b60056000838152602001908152602001600020600201549050919050565b6112fd61139e565b600073ffffffffffffffffffffffffffffffffffffffff168173ffffffffffffffffffffffffffffffffffffffff160361136c576040517f08c379a000000000000000000000000000000000000000000000000000000000815260040161136390611e9a565b60405180910390fd5b6113758161141c565b50565b600460009054906101000a900473ffffffffffffffffffffffffffffffffffffffff1681565b6113a66114e0565b73ffffffffffffffffffffffffffffffffffffffff166113c4610bec565b73ffffffffffffffffffffffffffffffffffffffff161461141a576040517f08c379a000000000000000000000000000000000000000000000000000000000815260040161141190611f06565b60405180910390fd5b565b60008060009054906101000a900473ffffffffffffffffffffffffffffffffffffffff169050816000806101000a81548173ffffffffffffffffffffffffffffffffffffffff021916908373ffffffffffffffffffffffffffffffffffffffff1602179055508173ffffffffffffffffffffffffffffffffffffffff168173ffffffffffffffffffffffffffffffffffffffff167f8be0079c531659141344cd1fd0a4f28419497f9722a3daafe3b4186f6b6457e060405160405180910390a35050565b600033905090565b6000819050919050565b6114fb816114e8565b82525050565b600060208201905061151660008301846114f2565b92915050565b600080fd5b61152a816114e8565b811461153557600080fd5b50565b60008135905061154781611521565b92915050565b6000602082840312156115635761156261151c565b5b600061157184828501611538565b91505092915050565b600081519050919050565b600082825260208201905092915050565b6000819050602082019050919050565b6115af816114e8565b82525050565b60006115c183836115a6565b60208301905092915050565b6000602082019050919050565b60006115e58261157a565b6115ef8185611585565b93506115fa83611596565b8060005b8381101561162b57815161161288826115b5565b975061161d836115cd565b9250506001810190506115fe565b5085935050505092915050565b6000602082019050818103600083015261165281846115da565b905092915050565b600073ffffffffffffffffffffffffffffffffffffffff82169050919050565b6000819050919050565b600061169f61169a6116958461165a565b61167a565b61165a565b9050919050565b60006116b182611684565b9050919050565b60006116c3826116a6565b9050919050565b6116d3816116b8565b82525050565b60006020820190506116ee60008301846116ca565b92915050565b60006116ff8261165a565b9050919050565b61170f816116f4565b82525050565b600060208201905061172a6000830184611706565b92915050565b600061173b8261165a565b9050919050565b61174b81611730565b82525050565b600060608201905061176660008301866114f2565b6117736020830185611742565b61178060408301846114f2565b949350505050565b6000806040838503121561179f5761179e61151c565b5b60006117ad85828601611538565b92505060206117be85828601611538565b9150509250929050565b6117d1816116f4565b81146117dc57600080fd5b50565b6000813590506117ee816117c8565b92915050565b60006020828403121561180a5761180961151c565b5b6000611818848285016117df565b91505092915050565b600061182c826116a6565b9050919050565b61183c81611821565b82525050565b60006020820190506118576000830184611833565b92915050565b600082825260208201905092915050565b7f54686973204e465420686173206e6f74206265656e206c697374656420796574600082015250565b60006118a460208361185d565b91506118af8261186e565b602082019050919050565b600060208201905081810360008301526118d381611897565b9050919050565b7f596f752061726520746865206f776e6572206f662074686973204e4654000000600082015250565b6000611910601d8361185d565b915061191b826118da565b602082019050919050565b6000602082019050818103600083015261193f81611903565b9050919050565b7f4e487b7100000000000000000000000000000000000000000000000000000000600052601160045260246000fd5b6000611980826114e8565b915061198b836114e8565b9250828202611999816114e8565b915082820484148315176119b0576119af611946565b5b5092915050565b7f4e487b7100000000000000000000000000000000000000000000000000000000600052601260045260246000fd5b60006119f1826114e8565b91506119fc836114e8565b925082611a0c57611a0b6119b7565b5b828204905092915050565b6000611a22826114e8565b9150611a2d836114e8565b9250828203905081811115611a4557611a44611946565b5b92915050565b6000606082019050611a606000830186611706565b611a6d6020830185611706565b611a7a60408301846114f2565b949350505050565b60008115159050919050565b611a9781611a82565b8114611aa257600080fd5b50565b600081519050611ab481611a8e565b92915050565b600060208284031215611ad057611acf61151c565b5b6000611ade84828501611aa5565b91505092915050565b7f4e487b7100000000000000000000000000000000000000000000000000000000600052603260045260246000fd5b7f4e487b7100000000000000000000000000000000000000000000000000000000600052603160045260246000fd5b6000611b50826114e8565b91507fffffffffffffffffffffffffffffffffffffffffffffffffffffffffffffffff8203611b8257611b81611946565b5b600182019050919050565b7f596f7520617265206e6f7420746865206f776e6572206f662074686973204e4660008201527f5400000000000000000000000000000000000000000000000000000000000000602082015250565b6000611be960218361185d565b9150611bf482611b8d565b604082019050919050565b60006020820190508181036000830152611c1881611bdc565b9050919050565b600081519050611c2e816117c8565b92915050565b600060208284031215611c4a57611c4961151c565b5b6000611c5884828501611c1f565b91505092915050565b7f596f75206d75737420617070726f7665207468697320636f6e7472616374207460008201527f6f207472616e7366657220796f7572204e465400000000000000000000000000602082015250565b6000611cbd60338361185d565b9150611cc882611c61565b604082019050919050565b60006020820190508181036000830152611cec81611cb0565b9050919050565b7f5072696365206d7573742062652067726561746572207468616e203000000000600082015250565b6000611d29601c8361185d565b9150611d3482611cf3565b602082019050919050565b60006020820190508181036000830152611d5881611d1c565b9050919050565b7f54686973204e46542068617320616c7265616479206265656e206c6973746564600082015250565b6000611d9560208361185d565b9150611da082611d5f565b602082019050919050565b60006020820190508181036000830152611dc481611d88565b9050919050565b6000611dd6826114e8565b9150611de1836114e8565b9250828201905080821115611df957611df8611946565b5b92915050565b6000604082019050611e146000830185611706565b611e2160208301846114f2565b9392505050565b7f4f776e61626c653a206e6577206f776e657220697320746865207a65726f206160008201527f6464726573730000000000000000000000000000000000000000000000000000602082015250565b6000611e8460268361185d565b9150611e8f82611e28565b604082019050919050565b60006020820190508181036000830152611eb381611e77565b9050919050565b7f4f776e61626c653a2063616c6c6572206973206e6f7420746865206f776e6572600082015250565b6000611ef060208361185d565b9150611efb82611eba565b602082019050919050565b60006020820190508181036000830152611f1f81611ee3565b905091905056fea2646970667358221220e0fafddc0263bba94d3531f02eba0ec3565fac35469f0bd75b5f9ba65ae2f20c64736f6c63430008120033",
  "linkReferences": {},
  "deployedLinkReferences": {}
}