{
  "_format": "hh-sol-artifact-1",
  "contractName": "CampaignPoolSwap",
  "sourceName": "contracts/poolSwap/CampaignPoolSwap.sol",
  "abi": [
    {
      "inputs": [],
      "stateMutability": "nonpayable",
      "type": "constructor"
    },
    {
      "anonymous": false,
      "inputs": [
        {
          "indexed": false,
          "internalType": "uint8",
          "name": "version",
          "type": "uint8"
        }
      ],
      "name": "Initialized",
      "type": "event"
    },
    {
      "anonymous": false,
      "inputs": [
        {
          "indexed": true,
          "internalType": "address",
          "name": "previousOwner",
          "type": "address"
        },
        {
          "indexed": true,
          "internalType": "address",
          "name": "newOwner",
          "type": "address"
        }
      ],
      "name": "OwnershipTransferred",
      "type": "event"
    },
    {
      "inputs": [
        {
          "internalType": "address",
          "name": "_tokenUSDT",
          "type": "address"
        },
        {
          "internalType": "uint256",
          "name": "_amount",
          "type": "uint256"
        }
      ],
      "name": "FramPool",
      "outputs": [],
      "stateMutability": "nonpayable",
      "type": "function"
    },
    {
      "inputs": [
        {
          "internalType": "address",
          "name": "_token1",
          "type": "address"
        },
        {
          "internalType": "uint256",
          "name": "_amount",
          "type": "uint256"
        }
      ],
      "name": "addPoolToken",
      "outputs": [],
      "stateMutability": "nonpayable",
      "type": "function"
    },
    {
      "inputs": [
        {
          "internalType": "address",
          "name": "",
          "type": "address"
        }
      ],
      "name": "balancesAddPool",
      "outputs": [
        {
          "internalType": "uint256",
          "name": "",
          "type": "uint256"
        }
      ],
      "stateMutability": "view",
      "type": "function"
    },
    {
      "inputs": [],
      "name": "getBalancePool",
      "outputs": [
        {
          "internalType": "uint256",
          "name": "",
          "type": "uint256"
        }
      ],
      "stateMutability": "view",
      "type": "function"
    },
    {
      "inputs": [],
      "name": "getReserves",
      "outputs": [
        {
          "internalType": "uint256",
          "name": "",
          "type": "uint256"
        },
        {
          "internalType": "uint256",
          "name": "",
          "type": "uint256"
        }
      ],
      "stateMutability": "view",
      "type": "function"
    },
    {
      "inputs": [
        {
          "internalType": "address",
          "name": "_usdtToken",
          "type": "address"
        },
        {
          "internalType": "address",
          "name": "_token1",
          "type": "address"
        },
        {
          "internalType": "uint256",
          "name": "_swapFee",
          "type": "uint256"
        },
        {
          "internalType": "uint256",
          "name": "_ratio",
          "type": "uint256"
        }
      ],
      "name": "initialize",
      "outputs": [],
      "stateMutability": "nonpayable",
      "type": "function"
    },
    {
      "inputs": [],
      "name": "owner",
      "outputs": [
        {
          "internalType": "address",
          "name": "",
          "type": "address"
        }
      ],
      "stateMutability": "view",
      "type": "function"
    },
    {
      "inputs": [],
      "name": "poolToken1",
      "outputs": [
        {
          "internalType": "uint256",
          "name": "",
          "type": "uint256"
        }
      ],
      "stateMutability": "view",
      "type": "function"
    },
    {
      "inputs": [],
      "name": "poolusdtToken",
      "outputs": [
        {
          "internalType": "uint256",
          "name": "",
          "type": "uint256"
        }
      ],
      "stateMutability": "view",
      "type": "function"
    },
    {
      "inputs": [],
      "name": "ratio",
      "outputs": [
        {
          "internalType": "uint256",
          "name": "",
          "type": "uint256"
        }
      ],
      "stateMutability": "view",
      "type": "function"
    },
    {
      "inputs": [],
      "name": "renounceOwnership",
      "outputs": [],
      "stateMutability": "nonpayable",
      "type": "function"
    },
    {
      "inputs": [
        {
          "internalType": "address",
          "name": "_from",
          "type": "address"
        },
        {
          "internalType": "address",
          "name": "_to",
          "type": "address"
        },
        {
          "internalType": "uint256",
          "name": "_amount",
          "type": "uint256"
        }
      ],
      "name": "swap",
      "outputs": [],
      "stateMutability": "nonpayable",
      "type": "function"
    },
    {
      "inputs": [],
      "name": "swapFee",
      "outputs": [
        {
          "internalType": "uint256",
          "name": "",
          "type": "uint256"
        }
      ],
      "stateMutability": "view",
      "type": "function"
    },
    {
      "inputs": [],
      "name": "token1",
      "outputs": [
        {
          "internalType": "contract ERC20",
          "name": "",
          "type": "address"
        }
      ],
      "stateMutability": "view",
      "type": "function"
    },
    {
      "inputs": [
        {
          "internalType": "address",
          "name": "newOwner",
          "type": "address"
        }
      ],
      "name": "transferOwnership",
      "outputs": [],
      "stateMutability": "nonpayable",
      "type": "function"
    },
    {
      "inputs": [],
      "name": "usdtToken",
      "outputs": [
        {
          "internalType": "contract ERC20",
          "name": "",
          "type": "address"
        }
      ],
      "stateMutability": "view",
      "type": "function"
    },
    {
      "inputs": [],
      "name": "withdrawPool",
      "outputs": [],
      "stateMutability": "nonpayable",
      "type": "function"
    }
  ],
  "bytecode": "0x608060405234801561001057600080fd5b50612188806100206000396000f3fe608060405234801561001057600080fd5b506004361061010b5760003560e01c806371ca337d116100a2578063a98ad46c11610071578063a98ad46c1461025f578063d21220a71461027d578063df791e501461029b578063eb990c59146102b7578063f2fde38b146102d35761010b565b806371ca337d146101e957806386c7b225146102075780638da5cb5b146102255780639a536389146102435761010b565b80635b0d2d8c116100de5780635b0d2d8c146101875780635c42c733146101a557806369901023146101af578063715018a6146101df5761010b565b80630902f1ac1461011057806322142a921461012f5780634758af8a1461014b57806354cf2aeb14610169575b600080fd5b6101186102ef565b60405161012692919061189a565b60405180910390f35b61014960048036038101906101449190611952565b610432565b005b6101536106b6565b6040516101609190611992565b60405180910390f35b6101716106bc565b60405161017e9190611992565b60405180910390f35b61018f6106c2565b60405161019c9190611992565b60405180910390f35b6101ad610765565b005b6101c960048036038101906101c491906119ad565b610927565b6040516101d69190611992565b60405180910390f35b6101e761093f565b005b6101f1610953565b6040516101fe9190611992565b60405180910390f35b61020f610959565b60405161021c9190611992565b60405180910390f35b61022d61095f565b60405161023a91906119e9565b60405180910390f35b61025d60048036038101906102589190611952565b610989565b005b610267610ae1565b6040516102749190611a63565b60405180910390f35b610285610b07565b6040516102929190611a63565b60405180910390f35b6102b560048036038101906102b09190611a7e565b610b2d565b005b6102d160048036038101906102cc9190611ad1565b611403565b005b6102ed60048036038101906102e891906119ad565b6115d5565b005b600080606560009054906101000a900473ffffffffffffffffffffffffffffffffffffffff1673ffffffffffffffffffffffffffffffffffffffff166370a08231306040518263ffffffff1660e01b815260040161034d91906119e9565b602060405180830381865afa15801561036a573d6000803e3d6000fd5b505050506040513d601f19601f8201168201806040525081019061038e9190611b4d565b606660009054906101000a900473ffffffffffffffffffffffffffffffffffffffff1673ffffffffffffffffffffffffffffffffffffffff166370a08231306040518263ffffffff1660e01b81526004016103e991906119e9565b602060405180830381865afa158015610406573d6000803e3d6000fd5b505050506040513d601f19601f8201168201806040525081019061042a9190611b4d565b915091509091565b606560009054906101000a900473ffffffffffffffffffffffffffffffffffffffff1673ffffffffffffffffffffffffffffffffffffffff168273ffffffffffffffffffffffffffffffffffffffff16146104c2576040517f08c379a00000000000000000000000000000000000000000000000000000000081526004016104b990611bd7565b60405180910390fd5b6000606660009054906101000a900473ffffffffffffffffffffffffffffffffffffffff1673ffffffffffffffffffffffffffffffffffffffff166370a08231306040518263ffffffff1660e01b815260040161051f91906119e9565b602060405180830381865afa15801561053c573d6000803e3d6000fd5b505050506040513d601f19601f820116820180604052508101906105609190611b4d565b116105a0576040517f08c379a000000000000000000000000000000000000000000000000000000000815260040161059790611bd7565b60405180910390fd5b606560009054906101000a900473ffffffffffffffffffffffffffffffffffffffff1673ffffffffffffffffffffffffffffffffffffffff166323b872dd3330846040518463ffffffff1660e01b81526004016105ff93929190611bf7565b6020604051808303816000875af115801561061e573d6000803e3d6000fd5b505050506040513d601f19601f820116820180604052508101906106429190611c66565b5080606a60008282546106559190611cc2565b9250508190555080606960003373ffffffffffffffffffffffffffffffffffffffff1673ffffffffffffffffffffffffffffffffffffffff16815260200190815260200160002060008282546106ab9190611cc2565b925050819055505050565b606b5481565b60675481565b6000606660009054906101000a900473ffffffffffffffffffffffffffffffffffffffff1673ffffffffffffffffffffffffffffffffffffffff166370a08231306040518263ffffffff1660e01b815260040161071f91906119e9565b602060405180830381865afa15801561073c573d6000803e3d6000fd5b505050506040513d601f19601f820116820180604052508101906107609190611b4d565b905090565b6000606960003373ffffffffffffffffffffffffffffffffffffffff1673ffffffffffffffffffffffffffffffffffffffff168152602001908152602001600020549050600081116107ec576040517f08c379a00000000000000000000000000000000000000000000000000000000081526004016107e390611d42565b60405180910390fd5b6000620186a0606754606a546108029190611d62565b61080c9190611dd3565b90506000606a54838361081f9190611d62565b6108299190611dd3565b9050600081846108399190611cc2565b90506000606960003373ffffffffffffffffffffffffffffffffffffffff1673ffffffffffffffffffffffffffffffffffffffff16815260200190815260200160002081905550606560009054906101000a900473ffffffffffffffffffffffffffffffffffffffff1673ffffffffffffffffffffffffffffffffffffffff1663a9059cbb33836040518363ffffffff1660e01b81526004016108dd929190611e04565b6020604051808303816000875af11580156108fc573d6000803e3d6000fd5b505050506040513d601f19601f820116820180604052508101906109209190611c66565b5050505050565b60696020528060005260406000206000915090505481565b610947611658565b61095160006116d6565b565b60685481565b606a5481565b6000603360009054906101000a900473ffffffffffffffffffffffffffffffffffffffff16905090565b610991611658565b606660009054906101000a900473ffffffffffffffffffffffffffffffffffffffff1673ffffffffffffffffffffffffffffffffffffffff168273ffffffffffffffffffffffffffffffffffffffff1614610a21576040517f08c379a0000000000000000000000000000000000000000000000000000000008152600401610a1890611bd7565b60405180910390fd5b606660009054906101000a900473ffffffffffffffffffffffffffffffffffffffff1673ffffffffffffffffffffffffffffffffffffffff166323b872dd3330846040518463ffffffff1660e01b8152600401610a8093929190611bf7565b6020604051808303816000875af1158015610a9f573d6000803e3d6000fd5b505050506040513d601f19601f82011682018060405250810190610ac39190611c66565b5080606b6000828254610ad69190611cc2565b925050819055505050565b606560009054906101000a900473ffffffffffffffffffffffffffffffffffffffff1681565b606660009054906101000a900473ffffffffffffffffffffffffffffffffffffffff1681565b606560009054906101000a900473ffffffffffffffffffffffffffffffffffffffff1673ffffffffffffffffffffffffffffffffffffffff168373ffffffffffffffffffffffffffffffffffffffff161480610bd65750606660009054906101000a900473ffffffffffffffffffffffffffffffffffffffff1673ffffffffffffffffffffffffffffffffffffffff168373ffffffffffffffffffffffffffffffffffffffff16145b610c15576040517f08c379a0000000000000000000000000000000000000000000000000000000008152600401610c0c90611bd7565b60405180910390fd5b606560009054906101000a900473ffffffffffffffffffffffffffffffffffffffff1673ffffffffffffffffffffffffffffffffffffffff168273ffffffffffffffffffffffffffffffffffffffff161480610cbe5750606660009054906101000a900473ffffffffffffffffffffffffffffffffffffffff1673ffffffffffffffffffffffffffffffffffffffff168273ffffffffffffffffffffffffffffffffffffffff16145b610cfd576040517f08c379a0000000000000000000000000000000000000000000000000000000008152600401610cf490611bd7565b60405180910390fd5b600080606560009054906101000a900473ffffffffffffffffffffffffffffffffffffffff1673ffffffffffffffffffffffffffffffffffffffff168573ffffffffffffffffffffffffffffffffffffffff1603610d7b57829150620186a060685484610d6a9190611d62565b610d749190611dd3565b9050610d9d565b606854620186a084610d8d9190611d62565b610d979190611dd3565b91508290505b6000606560009054906101000a900473ffffffffffffffffffffffffffffffffffffffff1673ffffffffffffffffffffffffffffffffffffffff166370a08231306040518263ffffffff1660e01b8152600401610dfa91906119e9565b602060405180830381865afa158015610e17573d6000803e3d6000fd5b505050506040513d601f19601f82011682018060405250810190610e3b9190611b4d565b90506000606660009054906101000a900473ffffffffffffffffffffffffffffffffffffffff1673ffffffffffffffffffffffffffffffffffffffff166370a08231306040518263ffffffff1660e01b8152600401610e9a91906119e9565b602060405180830381865afa158015610eb7573d6000803e3d6000fd5b505050506040513d601f19601f82011682018060405250810190610edb9190611b4d565b9050818411158015610eed5750808311155b610f2c576040517f08c379a0000000000000000000000000000000000000000000000000000000008152600401610f2390611e79565b60405180910390fd5b606560009054906101000a900473ffffffffffffffffffffffffffffffffffffffff1673ffffffffffffffffffffffffffffffffffffffff168773ffffffffffffffffffffffffffffffffffffffff16036111e5576000620186a060675486610f959190611d62565b610f9f9190611dd3565b9050606560009054906101000a900473ffffffffffffffffffffffffffffffffffffffff1673ffffffffffffffffffffffffffffffffffffffff166323b872dd3330846040518463ffffffff1660e01b815260040161100093929190611bf7565b6020604051808303816000875af115801561101f573d6000803e3d6000fd5b505050506040513d601f19601f820116820180604052508101906110439190611c66565b5080856110509190611e99565b9450606560009054906101000a900473ffffffffffffffffffffffffffffffffffffffff1673ffffffffffffffffffffffffffffffffffffffff1663a9059cbb30876040518363ffffffff1660e01b81526004016110af929190611e04565b6020604051808303816000875af11580156110ce573d6000803e3d6000fd5b505050506040513d601f19601f820116820180604052508101906110f29190611c66565b50606660009054906101000a900473ffffffffffffffffffffffffffffffffffffffff1673ffffffffffffffffffffffffffffffffffffffff1663a9059cbb33866040518363ffffffff1660e01b8152600401611150929190611e04565b6020604051808303816000875af115801561116f573d6000803e3d6000fd5b505050506040513d601f19601f820116820180604052508101906111939190611c66565b5084606a60008282546111a69190611cc2565b9250508190555083606b60008282546111bf9190611e99565b9250508190555080606a60008282546111d89190611cc2565b92505081905550506113fa565b606660009054906101000a900473ffffffffffffffffffffffffffffffffffffffff1673ffffffffffffffffffffffffffffffffffffffff168773ffffffffffffffffffffffffffffffffffffffff16036113f9576000620186a06067548661124e9190611d62565b6112589190611dd3565b905080856112669190611e99565b9450606560009054906101000a900473ffffffffffffffffffffffffffffffffffffffff1673ffffffffffffffffffffffffffffffffffffffff1663a9059cbb33876040518363ffffffff1660e01b81526004016112c5929190611e04565b6020604051808303816000875af11580156112e4573d6000803e3d6000fd5b505050506040513d601f19601f820116820180604052508101906113089190611c66565b50606660009054906101000a900473ffffffffffffffffffffffffffffffffffffffff1673ffffffffffffffffffffffffffffffffffffffff166323b872dd3330876040518463ffffffff1660e01b815260040161136893929190611bf7565b6020604051808303816000875af1158015611387573d6000803e3d6000fd5b505050506040513d601f19601f820116820180604052508101906113ab9190611c66565b5084606a60008282546113be9190611e99565b9250508190555083606b60008282546113d79190611cc2565b9250508190555080606a60008282546113f09190611cc2565b92505081905550505b5b50505050505050565b60008060019054906101000a900460ff161590508080156114345750600160008054906101000a900460ff1660ff16105b8061146157506114433061179c565b1580156114605750600160008054906101000a900460ff1660ff16145b5b6114a0576040517f08c379a000000000000000000000000000000000000000000000000000000000815260040161149790611f3f565b60405180910390fd5b60016000806101000a81548160ff021916908360ff16021790555080156114dd576001600060016101000a81548160ff0219169083151502179055505b84606560006101000a81548173ffffffffffffffffffffffffffffffffffffffff021916908373ffffffffffffffffffffffffffffffffffffffff16021790555083606660006101000a81548173ffffffffffffffffffffffffffffffffffffffff021916908373ffffffffffffffffffffffffffffffffffffffff16021790555082606781905550816068819055506115756117bf565b80156115ce5760008060016101000a81548160ff0219169083151502179055507f7f26b83ff96e1f2b6a682f133852f6798a09c465da95921460cefb384740249860016040516115c59190611fa7565b60405180910390a15b5050505050565b6115dd611658565b600073ffffffffffffffffffffffffffffffffffffffff168173ffffffffffffffffffffffffffffffffffffffff160361164c576040517f08c379a000000000000000000000000000000000000000000000000000000000815260040161164390612034565b60405180910390fd5b611655816116d6565b50565b611660611818565b73ffffffffffffffffffffffffffffffffffffffff1661167e61095f565b73ffffffffffffffffffffffffffffffffffffffff16146116d4576040517f08c379a00000000000000000000000000000000000000000000000000000000081526004016116cb906120a0565b60405180910390fd5b565b6000603360009054906101000a900473ffffffffffffffffffffffffffffffffffffffff16905081603360006101000a81548173ffffffffffffffffffffffffffffffffffffffff021916908373ffffffffffffffffffffffffffffffffffffffff1602179055508173ffffffffffffffffffffffffffffffffffffffff168173ffffffffffffffffffffffffffffffffffffffff167f8be0079c531659141344cd1fd0a4f28419497f9722a3daafe3b4186f6b6457e060405160405180910390a35050565b6000808273ffffffffffffffffffffffffffffffffffffffff163b119050919050565b600060019054906101000a900460ff1661180e576040517f08c379a000000000000000000000000000000000000000000000000000000000815260040161180590612132565b60405180910390fd5b611816611820565b565b600033905090565b600060019054906101000a900460ff1661186f576040517f08c379a000000000000000000000000000000000000000000000000000000000815260040161186690612132565b60405180910390fd5b61187f61187a611818565b6116d6565b565b6000819050919050565b61189481611881565b82525050565b60006040820190506118af600083018561188b565b6118bc602083018461188b565b9392505050565b600080fd5b600073ffffffffffffffffffffffffffffffffffffffff82169050919050565b60006118f3826118c8565b9050919050565b611903816118e8565b811461190e57600080fd5b50565b600081359050611920816118fa565b92915050565b61192f81611881565b811461193a57600080fd5b50565b60008135905061194c81611926565b92915050565b60008060408385031215611969576119686118c3565b5b600061197785828601611911565b92505060206119888582860161193d565b9150509250929050565b60006020820190506119a7600083018461188b565b92915050565b6000602082840312156119c3576119c26118c3565b5b60006119d184828501611911565b91505092915050565b6119e3816118e8565b82525050565b60006020820190506119fe60008301846119da565b92915050565b6000819050919050565b6000611a29611a24611a1f846118c8565b611a04565b6118c8565b9050919050565b6000611a3b82611a0e565b9050919050565b6000611a4d82611a30565b9050919050565b611a5d81611a42565b82525050565b6000602082019050611a786000830184611a54565b92915050565b600080600060608486031215611a9757611a966118c3565b5b6000611aa586828701611911565b9350506020611ab686828701611911565b9250506040611ac78682870161193d565b9150509250925092565b60008060008060808587031215611aeb57611aea6118c3565b5b6000611af987828801611911565b9450506020611b0a87828801611911565b9350506040611b1b8782880161193d565b9250506060611b2c8782880161193d565b91505092959194509250565b600081519050611b4781611926565b92915050565b600060208284031215611b6357611b626118c3565b5b6000611b7184828501611b38565b91505092915050565b600082825260208201905092915050565b7f496e76616c696420746f6b656e00000000000000000000000000000000000000600082015250565b6000611bc1600d83611b7a565b9150611bcc82611b8b565b602082019050919050565b60006020820190508181036000830152611bf081611bb4565b9050919050565b6000606082019050611c0c60008301866119da565b611c1960208301856119da565b611c26604083018461188b565b949350505050565b60008115159050919050565b611c4381611c2e565b8114611c4e57600080fd5b50565b600081519050611c6081611c3a565b92915050565b600060208284031215611c7c57611c7b6118c3565b5b6000611c8a84828501611c51565b91505092915050565b7f4e487b7100000000000000000000000000000000000000000000000000000000600052601160045260246000fd5b6000611ccd82611881565b9150611cd883611881565b9250828201905080821115611cf057611cef611c93565b5b92915050565b7f4e6f2062616c616e636520746f20776974686472617700000000000000000000600082015250565b6000611d2c601683611b7a565b9150611d3782611cf6565b602082019050919050565b60006020820190508181036000830152611d5b81611d1f565b9050919050565b6000611d6d82611881565b9150611d7883611881565b9250828202611d8681611881565b91508282048414831517611d9d57611d9c611c93565b5b5092915050565b7f4e487b7100000000000000000000000000000000000000000000000000000000600052601260045260246000fd5b6000611dde82611881565b9150611de983611881565b925082611df957611df8611da4565b5b828204905092915050565b6000604082019050611e1960008301856119da565b611e26602083018461188b565b9392505050565b7f496e73756666696369656e742062616c616e6365000000000000000000000000600082015250565b6000611e63601483611b7a565b9150611e6e82611e2d565b602082019050919050565b60006020820190508181036000830152611e9281611e56565b9050919050565b6000611ea482611881565b9150611eaf83611881565b9250828203905081811115611ec757611ec6611c93565b5b92915050565b7f496e697469616c697a61626c653a20636f6e747261637420697320616c72656160008201527f647920696e697469616c697a6564000000000000000000000000000000000000602082015250565b6000611f29602e83611b7a565b9150611f3482611ecd565b604082019050919050565b60006020820190508181036000830152611f5881611f1c565b9050919050565b6000819050919050565b600060ff82169050919050565b6000611f91611f8c611f8784611f5f565b611a04565b611f69565b9050919050565b611fa181611f76565b82525050565b6000602082019050611fbc6000830184611f98565b92915050565b7f4f776e61626c653a206e6577206f776e657220697320746865207a65726f206160008201527f6464726573730000000000000000000000000000000000000000000000000000602082015250565b600061201e602683611b7a565b915061202982611fc2565b604082019050919050565b6000602082019050818103600083015261204d81612011565b9050919050565b7f4f776e61626c653a2063616c6c6572206973206e6f7420746865206f776e6572600082015250565b600061208a602083611b7a565b915061209582612054565b602082019050919050565b600060208201905081810360008301526120b98161207d565b9050919050565b7f496e697469616c697a61626c653a20636f6e7472616374206973206e6f74206960008201527f6e697469616c697a696e67000000000000000000000000000000000000000000602082015250565b600061211c602b83611b7a565b9150612127826120c0565b604082019050919050565b6000602082019050818103600083015261214b8161210f565b905091905056fea26469706673582212203acdf1b66a6beb5b90fbb95963ff515ee3acdf41ee78c084642358528f77508e64736f6c63430008120033",
  "linkReferences": {},
  "deployedLinkReferences": {}
}