{
  "_format": "hh-sol-artifact-1",
  "contractName": "NFTSplittingME",
  "sourceName": "contracts/NFT.sol",
  "abi": [
    {
      "inputs": [],
      "stateMutability": "nonpayable",
      "type": "constructor"
    },
    {
      "anonymous": false,
      "inputs": [
        {
          "indexed": true,
          "internalType": "address",
          "name": "owner",
          "type": "address"
        },
        {
          "indexed": true,
          "internalType": "address",
          "name": "approved",
          "type": "address"
        },
        {
          "indexed": true,
          "internalType": "uint256",
          "name": "tokenId",
          "type": "uint256"
        }
      ],
      "name": "Approval",
      "type": "event"
    },
    {
      "anonymous": false,
      "inputs": [
        {
          "indexed": true,
          "internalType": "address",
          "name": "owner",
          "type": "address"
        },
        {
          "indexed": true,
          "internalType": "address",
          "name": "operator",
          "type": "address"
        },
        {
          "indexed": false,
          "internalType": "bool",
          "name": "approved",
          "type": "bool"
        }
      ],
      "name": "ApprovalForAll",
      "type": "event"
    },
    {
      "anonymous": false,
      "inputs": [
        {
          "indexed": false,
          "internalType": "uint256",
          "name": "_fromTokenId",
          "type": "uint256"
        },
        {
          "indexed": false,
          "internalType": "uint256",
          "name": "_toTokenId",
          "type": "uint256"
        }
      ],
      "name": "BatchMetadataUpdate",
      "type": "event"
    },
    {
      "anonymous": false,
      "inputs": [
        {
          "indexed": false,
          "internalType": "uint256",
          "name": "_tokenId",
          "type": "uint256"
        }
      ],
      "name": "MetadataUpdate",
      "type": "event"
    },
    {
      "anonymous": false,
      "inputs": [
        {
          "indexed": true,
          "internalType": "address",
          "name": "previousOwner",
          "type": "address"
        },
        {
          "indexed": true,
          "internalType": "address",
          "name": "newOwner",
          "type": "address"
        }
      ],
      "name": "OwnershipTransferred",
      "type": "event"
    },
    {
      "anonymous": false,
      "inputs": [
        {
          "indexed": true,
          "internalType": "address",
          "name": "from",
          "type": "address"
        },
        {
          "indexed": true,
          "internalType": "address",
          "name": "to",
          "type": "address"
        },
        {
          "indexed": true,
          "internalType": "uint256",
          "name": "tokenId",
          "type": "uint256"
        }
      ],
      "name": "Transfer",
      "type": "event"
    },
    {
      "inputs": [],
      "name": "FactoryToken",
      "outputs": [
        {
          "internalType": "address",
          "name": "",
          "type": "address"
        }
      ],
      "stateMutability": "view",
      "type": "function"
    },
    {
      "inputs": [
        {
          "internalType": "address",
          "name": "to",
          "type": "address"
        },
        {
          "internalType": "uint256",
          "name": "tokenId",
          "type": "uint256"
        }
      ],
      "name": "approve",
      "outputs": [],
      "stateMutability": "nonpayable",
      "type": "function"
    },
    {
      "inputs": [
        {
          "internalType": "address",
          "name": "owner",
          "type": "address"
        }
      ],
      "name": "balanceOf",
      "outputs": [
        {
          "internalType": "uint256",
          "name": "",
          "type": "uint256"
        }
      ],
      "stateMutability": "view",
      "type": "function"
    },
    {
      "inputs": [
        {
          "internalType": "uint256",
          "name": "tokenId",
          "type": "uint256"
        }
      ],
      "name": "burn",
      "outputs": [],
      "stateMutability": "nonpayable",
      "type": "function"
    },
    {
      "inputs": [
        {
          "internalType": "address",
          "name": "_owner",
          "type": "address"
        }
      ],
      "name": "getAllNFT",
      "outputs": [
        {
          "internalType": "uint256[]",
          "name": "",
          "type": "uint256[]"
        }
      ],
      "stateMutability": "view",
      "type": "function"
    },
    {
      "inputs": [
        {
          "internalType": "uint256",
          "name": "tokenId",
          "type": "uint256"
        }
      ],
      "name": "getApproved",
      "outputs": [
        {
          "internalType": "address",
          "name": "",
          "type": "address"
        }
      ],
      "stateMutability": "view",
      "type": "function"
    },
    {
      "inputs": [
        {
          "internalType": "address",
          "name": "_FactoryToken",
          "type": "address"
        }
      ],
      "name": "initialize",
      "outputs": [],
      "stateMutability": "nonpayable",
      "type": "function"
    },
    {
      "inputs": [
        {
          "internalType": "address",
          "name": "owner",
          "type": "address"
        },
        {
          "internalType": "address",
          "name": "operator",
          "type": "address"
        }
      ],
      "name": "isApprovedForAll",
      "outputs": [
        {
          "internalType": "bool",
          "name": "",
          "type": "bool"
        }
      ],
      "stateMutability": "view",
      "type": "function"
    },
    {
      "inputs": [
        {
          "internalType": "address",
          "name": "to",
          "type": "address"
        },
        {
          "internalType": "string",
          "name": "tokenURI",
          "type": "string"
        }
      ],
      "name": "mintNFT",
      "outputs": [
        {
          "internalType": "uint256",
          "name": "",
          "type": "uint256"
        }
      ],
      "stateMutability": "nonpayable",
      "type": "function"
    },
    {
      "inputs": [],
      "name": "name",
      "outputs": [
        {
          "internalType": "string",
          "name": "",
          "type": "string"
        }
      ],
      "stateMutability": "view",
      "type": "function"
    },
    {
      "inputs": [],
      "name": "owner",
      "outputs": [
        {
          "internalType": "address",
          "name": "",
          "type": "address"
        }
      ],
      "stateMutability": "view",
      "type": "function"
    },
    {
      "inputs": [
        {
          "internalType": "uint256",
          "name": "tokenId",
          "type": "uint256"
        }
      ],
      "name": "ownerOf",
      "outputs": [
        {
          "internalType": "address",
          "name": "",
          "type": "address"
        }
      ],
      "stateMutability": "view",
      "type": "function"
    },
    {
      "inputs": [],
      "name": "renounceOwnership",
      "outputs": [],
      "stateMutability": "nonpayable",
      "type": "function"
    },
    {
      "inputs": [
        {
          "internalType": "address",
          "name": "from",
          "type": "address"
        },
        {
          "internalType": "address",
          "name": "to",
          "type": "address"
        },
        {
          "internalType": "uint256",
          "name": "tokenId",
          "type": "uint256"
        }
      ],
      "name": "safeTransferFrom",
      "outputs": [],
      "stateMutability": "nonpayable",
      "type": "function"
    },
    {
      "inputs": [
        {
          "internalType": "address",
          "name": "from",
          "type": "address"
        },
        {
          "internalType": "address",
          "name": "to",
          "type": "address"
        },
        {
          "internalType": "uint256",
          "name": "tokenId",
          "type": "uint256"
        },
        {
          "internalType": "bytes",
          "name": "data",
          "type": "bytes"
        }
      ],
      "name": "safeTransferFrom",
      "outputs": [],
      "stateMutability": "nonpayable",
      "type": "function"
    },
    {
      "inputs": [
        {
          "internalType": "address",
          "name": "operator",
          "type": "address"
        },
        {
          "internalType": "bool",
          "name": "approved",
          "type": "bool"
        }
      ],
      "name": "setApprovalForAll",
      "outputs": [],
      "stateMutability": "nonpayable",
      "type": "function"
    },
    {
      "inputs": [
        {
          "internalType": "bytes4",
          "name": "interfaceId",
          "type": "bytes4"
        }
      ],
      "name": "supportsInterface",
      "outputs": [
        {
          "internalType": "bool",
          "name": "",
          "type": "bool"
        }
      ],
      "stateMutability": "view",
      "type": "function"
    },
    {
      "inputs": [],
      "name": "symbol",
      "outputs": [
        {
          "internalType": "string",
          "name": "",
          "type": "string"
        }
      ],
      "stateMutability": "view",
      "type": "function"
    },
    {
      "inputs": [
        {
          "internalType": "uint256",
          "name": "tokenId",
          "type": "uint256"
        }
      ],
      "name": "tokenURI",
      "outputs": [
        {
          "internalType": "string",
          "name": "",
          "type": "string"
        }
      ],
      "stateMutability": "view",
      "type": "function"
    },
    {
      "inputs": [
        {
          "internalType": "address",
          "name": "from",
          "type": "address"
        },
        {
          "internalType": "address",
          "name": "to",
          "type": "address"
        },
        {
          "internalType": "uint256",
          "name": "tokenId",
          "type": "uint256"
        }
      ],
      "name": "transferFrom",
      "outputs": [],
      "stateMutability": "nonpayable",
      "type": "function"
    },
    {
      "inputs": [
        {
          "internalType": "address",
          "name": "to",
          "type": "address"
        },
        {
          "internalType": "uint256",
          "name": "tokenId",
          "type": "uint256"
        }
      ],
      "name": "transferNFT",
      "outputs": [],
      "stateMutability": "nonpayable",
      "type": "function"
    },
    {
      "inputs": [
        {
          "internalType": "address",
          "name": "newOwner",
          "type": "address"
        }
      ],
      "name": "transferOwnership",
      "outputs": [],
      "stateMutability": "nonpayable",
      "type": "function"
    },
    {
      "inputs": [
        {
          "internalType": "address",
          "name": "to",
          "type": "address"
        }
      ],
      "name": "transferOwnershipNFT",
      "outputs": [],
      "stateMutability": "nonpayable",
      "type": "function"
    }
  ],
  "bytecode": "0x60806040523480156200001157600080fd5b506040518060400160405280601081526020017f53706c697474696e67204d45204e4654000000000000000000000000000000008152506040518060400160405280600481526020017f424e46540000000000000000000000000000000000000000000000000000000081525081600090816200008f919062000453565b508060019081620000a1919062000453565b505050620000c4620000b86200010b60201b60201c565b6200011360201b60201c565b33600960006101000a81548173ffffffffffffffffffffffffffffffffffffffff021916908373ffffffffffffffffffffffffffffffffffffffff1602179055506200053a565b600033905090565b6000600760009054906101000a900473ffffffffffffffffffffffffffffffffffffffff16905081600760006101000a81548173ffffffffffffffffffffffffffffffffffffffff021916908373ffffffffffffffffffffffffffffffffffffffff1602179055508173ffffffffffffffffffffffffffffffffffffffff168173ffffffffffffffffffffffffffffffffffffffff167f8be0079c531659141344cd1fd0a4f28419497f9722a3daafe3b4186f6b6457e060405160405180910390a35050565b600081519050919050565b7f4e487b7100000000000000000000000000000000000000000000000000000000600052604160045260246000fd5b7f4e487b7100000000000000000000000000000000000000000000000000000000600052602260045260246000fd5b600060028204905060018216806200025b57607f821691505b60208210810362000271576200027062000213565b5b50919050565b60008190508160005260206000209050919050565b60006020601f8301049050919050565b600082821b905092915050565b600060088302620002db7fffffffffffffffffffffffffffffffffffffffffffffffffffffffffffffffff826200029c565b620002e786836200029c565b95508019841693508086168417925050509392505050565b6000819050919050565b6000819050919050565b6000620003346200032e6200032884620002ff565b62000309565b620002ff565b9050919050565b6000819050919050565b620003508362000313565b620003686200035f826200033b565b848454620002a9565b825550505050565b600090565b6200037f62000370565b6200038c81848462000345565b505050565b5b81811015620003b457620003a860008262000375565b60018101905062000392565b5050565b601f8211156200040357620003cd8162000277565b620003d8846200028c565b81016020851015620003e8578190505b62000400620003f7856200028c565b83018262000391565b50505b505050565b600082821c905092915050565b6000620004286000198460080262000408565b1980831691505092915050565b600062000443838362000415565b9150826002028217905092915050565b6200045e82620001d9565b67ffffffffffffffff8111156200047a5762000479620001e4565b5b62000486825462000242565b62000493828285620003b8565b600060209050601f831160018114620004cb5760008415620004b6578287015190505b620004c2858262000435565b86555062000532565b601f198416620004db8662000277565b60005b828110156200050557848901518255600182019150602085019450602081019050620004de565b8683101562000525578489015162000521601f89168262000415565b8355505b6001600288020188555050505b505050505050565b61376f806200054a6000396000f3fe608060405234801561001057600080fd5b506004361061014d5760003560e01c8063715018a6116100c3578063c4d66de81161007c578063c4d66de814610386578063c87b56dd146103a2578063e985e9c5146103d2578063eacabe1414610402578063f2fde38b14610432578063f345cae31461044e5761014d565b8063715018a6146102ec5780638da5cb5b146102f657806394ab67fe1461031457806395d89b4114610330578063a22cb4651461034e578063b88d4fde1461036a5761014d565b806323b872dd1161011557806323b872dd1461021c5780632724d5911461023857806342842e0e1461025457806342966c68146102705780636352211e1461028c57806370a08231146102bc5761014d565b806301ffc9a71461015257806306fdde0314610182578063081812fc146101a0578063095ea7b3146101d05780631b8df0ee146101ec575b600080fd5b61016c600480360381019061016791906122dc565b61046c565b6040516101799190612324565b60405180910390f35b61018a6104cd565b60405161019791906123cf565b60405180910390f35b6101ba60048036038101906101b59190612427565b61055f565b6040516101c79190612495565b60405180910390f35b6101ea60048036038101906101e591906124dc565b6105a5565b005b6102066004803603810190610201919061251c565b6106bc565b6040516102139190612607565b60405180910390f35b61023660048036038101906102319190612629565b6107b4565b005b610252600480360381019061024d919061251c565b610814565b005b61026e60048036038101906102699190612629565b610828565b005b61028a60048036038101906102859190612427565b610848565b005b6102a660048036038101906102a19190612427565b6108ca565b6040516102b39190612495565b60405180910390f35b6102d660048036038101906102d1919061251c565b610950565b6040516102e3919061268b565b60405180910390f35b6102f4610a07565b005b6102fe610a1b565b60405161030b9190612495565b60405180910390f35b61032e600480360381019061032991906124dc565b610a45565b005b610338610aca565b60405161034591906123cf565b60405180910390f35b610368600480360381019061036391906126d2565b610b5c565b005b610384600480360381019061037f9190612847565b610b72565b005b6103a0600480360381019061039b919061251c565b610bd4565b005b6103bc60048036038101906103b79190612427565b610cb0565b6040516103c991906123cf565b60405180910390f35b6103ec60048036038101906103e791906128ca565b610dc2565b6040516103f99190612324565b60405180910390f35b61041c600480360381019061041791906129ab565b610e56565b604051610429919061268b565b60405180910390f35b61044c6004803603810190610447919061251c565b610f1e565b005b610456610fa1565b6040516104639190612495565b60405180910390f35b6000634906490660e01b7bffffffffffffffffffffffffffffffffffffffffffffffffffffffff1916827bffffffffffffffffffffffffffffffffffffffffffffffffffffffff191614806104c657506104c582610fc7565b5b9050919050565b6060600080546104dc90612a36565b80601f016020809104026020016040519081016040528092919081815260200182805461050890612a36565b80156105555780601f1061052a57610100808354040283529160200191610555565b820191906000526020600020905b81548152906001019060200180831161053857829003601f168201915b5050505050905090565b600061056a826110a9565b6004600083815260200190815260200160002060009054906101000a900473ffffffffffffffffffffffffffffffffffffffff169050919050565b60006105b0826108ca565b90508073ffffffffffffffffffffffffffffffffffffffff168373ffffffffffffffffffffffffffffffffffffffff1603610620576040517f08c379a000000000000000000000000000000000000000000000000000000000815260040161061790612ad9565b60405180910390fd5b8073ffffffffffffffffffffffffffffffffffffffff1661063f6110f4565b73ffffffffffffffffffffffffffffffffffffffff16148061066e575061066d816106686110f4565b610dc2565b5b6106ad576040517f08c379a00000000000000000000000000000000000000000000000000000000081526004016106a490612b6b565b60405180910390fd5b6106b783836110fc565b505050565b606060006106ca60086111b5565b67ffffffffffffffff8111156106e3576106e261271c565b5b6040519080825280602002602001820160405280156107115781602001602082028036833780820191505090505b509050600080600190505b61072660086111b5565b81116107a9578473ffffffffffffffffffffffffffffffffffffffff1661074c826108ca565b73ffffffffffffffffffffffffffffffffffffffff1603610796578083838151811061077b5761077a612b8b565b5b602002602001018181525050818061079290612be9565b9250505b80806107a190612be9565b91505061071c565b508192505050919050565b6107c56107bf6110f4565b826111c3565b610804576040517f08c379a00000000000000000000000000000000000000000000000000000000081526004016107fb90612ca3565b60405180910390fd5b61080f838383611258565b505050565b61081c611551565b61082581610f1e565b50565b61084383838360405180602001604052806000815250610b72565b505050565b3373ffffffffffffffffffffffffffffffffffffffff16610868826108ca565b73ffffffffffffffffffffffffffffffffffffffff16146108be576040517f08c379a00000000000000000000000000000000000000000000000000000000081526004016108b590612d35565b60405180910390fd5b6108c7816115cf565b50565b6000806108d683611622565b9050600073ffffffffffffffffffffffffffffffffffffffff168173ffffffffffffffffffffffffffffffffffffffff1603610947576040517f08c379a000000000000000000000000000000000000000000000000000000000815260040161093e90612da1565b60405180910390fd5b80915050919050565b60008073ffffffffffffffffffffffffffffffffffffffff168273ffffffffffffffffffffffffffffffffffffffff16036109c0576040517f08c379a00000000000000000000000000000000000000000000000000000000081526004016109b790612e33565b60405180910390fd5b600360008373ffffffffffffffffffffffffffffffffffffffff1673ffffffffffffffffffffffffffffffffffffffff168152602001908152602001600020549050919050565b610a0f611551565b610a19600061165f565b565b6000600760009054906101000a900473ffffffffffffffffffffffffffffffffffffffff16905090565b3373ffffffffffffffffffffffffffffffffffffffff16610a65826108ca565b73ffffffffffffffffffffffffffffffffffffffff1614610abb576040517f08c379a0000000000000000000000000000000000000000000000000000000008152600401610ab290612d35565b60405180910390fd5b610ac6338383610828565b5050565b606060018054610ad990612a36565b80601f0160208091040260200160405190810160405280929190818152602001828054610b0590612a36565b8015610b525780601f10610b2757610100808354040283529160200191610b52565b820191906000526020600020905b815481529060010190602001808311610b3557829003601f168201915b5050505050905090565b610b6e610b676110f4565b8383611725565b5050565b610b83610b7d6110f4565b836111c3565b610bc2576040517f08c379a0000000000000000000000000000000000000000000000000000000008152600401610bb990612ca3565b60405180910390fd5b610bce84848484611891565b50505050565b610bdc611551565b600960009054906101000a900473ffffffffffffffffffffffffffffffffffffffff1673ffffffffffffffffffffffffffffffffffffffff163373ffffffffffffffffffffffffffffffffffffffff1614610c6c576040517f08c379a0000000000000000000000000000000000000000000000000000000008152600401610c6390612e9f565b60405180910390fd5b80600960006101000a81548173ffffffffffffffffffffffffffffffffffffffff021916908373ffffffffffffffffffffffffffffffffffffffff16021790555050565b6060610cbb826110a9565b6000600660008481526020019081526020016000208054610cdb90612a36565b80601f0160208091040260200160405190810160405280929190818152602001828054610d0790612a36565b8015610d545780601f10610d2957610100808354040283529160200191610d54565b820191906000526020600020905b815481529060010190602001808311610d3757829003601f168201915b505050505090506000610d656118ed565b90506000815103610d7a578192505050610dbd565b600082511115610daf578082604051602001610d97929190612efb565b60405160208183030381529060405292505050610dbd565b610db884611904565b925050505b919050565b6000600560008473ffffffffffffffffffffffffffffffffffffffff1673ffffffffffffffffffffffffffffffffffffffff16815260200190815260200160002060008373ffffffffffffffffffffffffffffffffffffffff1673ffffffffffffffffffffffffffffffffffffffff16815260200190815260200160002060009054906101000a900460ff16905092915050565b6000600960009054906101000a900473ffffffffffffffffffffffffffffffffffffffff1673ffffffffffffffffffffffffffffffffffffffff163373ffffffffffffffffffffffffffffffffffffffff1614610ee8576040517f08c379a0000000000000000000000000000000000000000000000000000000008152600401610edf90612e9f565b60405180910390fd5b610ef2600861196c565b6000610efe60086111b5565b9050610f0a8482611982565b610f148184611b9f565b8091505092915050565b610f26611551565b600073ffffffffffffffffffffffffffffffffffffffff168173ffffffffffffffffffffffffffffffffffffffff1603610f95576040517f08c379a0000000000000000000000000000000000000000000000000000000008152600401610f8c90612f91565b60405180910390fd5b610f9e8161165f565b50565b600960009054906101000a900473ffffffffffffffffffffffffffffffffffffffff1681565b60007f80ac58cd000000000000000000000000000000000000000000000000000000007bffffffffffffffffffffffffffffffffffffffffffffffffffffffff1916827bffffffffffffffffffffffffffffffffffffffffffffffffffffffff1916148061109257507f5b5e139f000000000000000000000000000000000000000000000000000000007bffffffffffffffffffffffffffffffffffffffffffffffffffffffff1916827bffffffffffffffffffffffffffffffffffffffffffffffffffffffff1916145b806110a257506110a182611c43565b5b9050919050565b6110b281611cad565b6110f1576040517f08c379a00000000000000000000000000000000000000000000000000000000081526004016110e890612da1565b60405180910390fd5b50565b600033905090565b816004600083815260200190815260200160002060006101000a81548173ffffffffffffffffffffffffffffffffffffffff021916908373ffffffffffffffffffffffffffffffffffffffff160217905550808273ffffffffffffffffffffffffffffffffffffffff1661116f836108ca565b73ffffffffffffffffffffffffffffffffffffffff167f8c5be1e5ebec7d5bd14f71427d1e84f3dd0314c0f7b2291e5b200ac8c7c3b92560405160405180910390a45050565b600081600001549050919050565b6000806111cf836108ca565b90508073ffffffffffffffffffffffffffffffffffffffff168473ffffffffffffffffffffffffffffffffffffffff16148061121157506112108185610dc2565b5b8061124f57508373ffffffffffffffffffffffffffffffffffffffff166112378461055f565b73ffffffffffffffffffffffffffffffffffffffff16145b91505092915050565b8273ffffffffffffffffffffffffffffffffffffffff16611278826108ca565b73ffffffffffffffffffffffffffffffffffffffff16146112ce576040517f08c379a00000000000000000000000000000000000000000000000000000000081526004016112c590613023565b60405180910390fd5b600073ffffffffffffffffffffffffffffffffffffffff168273ffffffffffffffffffffffffffffffffffffffff160361133d576040517f08c379a0000000000000000000000000000000000000000000000000000000008152600401611334906130b5565b60405180910390fd5b61134a8383836001611cee565b8273ffffffffffffffffffffffffffffffffffffffff1661136a826108ca565b73ffffffffffffffffffffffffffffffffffffffff16146113c0576040517f08c379a00000000000000000000000000000000000000000000000000000000081526004016113b790613023565b60405180910390fd5b6004600082815260200190815260200160002060006101000a81549073ffffffffffffffffffffffffffffffffffffffff02191690556001600360008573ffffffffffffffffffffffffffffffffffffffff1673ffffffffffffffffffffffffffffffffffffffff168152602001908152602001600020600082825403925050819055506001600360008473ffffffffffffffffffffffffffffffffffffffff1673ffffffffffffffffffffffffffffffffffffffff16815260200190815260200160002060008282540192505081905550816002600083815260200190815260200160002060006101000a81548173ffffffffffffffffffffffffffffffffffffffff021916908373ffffffffffffffffffffffffffffffffffffffff160217905550808273ffffffffffffffffffffffffffffffffffffffff168473ffffffffffffffffffffffffffffffffffffffff167fddf252ad1be2c89b69c2b068fc378daa952ba7f163c4a11628f55a4df523b3ef60405160405180910390a461154c8383836001611cf4565b505050565b6115596110f4565b73ffffffffffffffffffffffffffffffffffffffff16611577610a1b565b73ffffffffffffffffffffffffffffffffffffffff16146115cd576040517f08c379a00000000000000000000000000000000000000000000000000000000081526004016115c490613121565b60405180910390fd5b565b6115d881611cfa565b60006006600083815260200190815260200160002080546115f890612a36565b90501461161f5760066000828152602001908152602001600020600061161e9190612213565b5b50565b60006002600083815260200190815260200160002060009054906101000a900473ffffffffffffffffffffffffffffffffffffffff169050919050565b6000600760009054906101000a900473ffffffffffffffffffffffffffffffffffffffff16905081600760006101000a81548173ffffffffffffffffffffffffffffffffffffffff021916908373ffffffffffffffffffffffffffffffffffffffff1602179055508173ffffffffffffffffffffffffffffffffffffffff168173ffffffffffffffffffffffffffffffffffffffff167f8be0079c531659141344cd1fd0a4f28419497f9722a3daafe3b4186f6b6457e060405160405180910390a35050565b8173ffffffffffffffffffffffffffffffffffffffff168373ffffffffffffffffffffffffffffffffffffffff1603611793576040517f08c379a000000000000000000000000000000000000000000000000000000000815260040161178a9061318d565b60405180910390fd5b80600560008573ffffffffffffffffffffffffffffffffffffffff1673ffffffffffffffffffffffffffffffffffffffff16815260200190815260200160002060008473ffffffffffffffffffffffffffffffffffffffff1673ffffffffffffffffffffffffffffffffffffffff16815260200190815260200160002060006101000a81548160ff0219169083151502179055508173ffffffffffffffffffffffffffffffffffffffff168373ffffffffffffffffffffffffffffffffffffffff167f17307eab39ab6107e8899845ad3d59bd9653f200f220920489ca2b5937696c31836040516118849190612324565b60405180910390a3505050565b61189c848484611258565b6118a884848484611e48565b6118e7576040517f08c379a00000000000000000000000000000000000000000000000000000000081526004016118de9061321f565b60405180910390fd5b50505050565b606060405180602001604052806000815250905090565b606061190f826110a9565b60006119196118ed565b905060008151116119395760405180602001604052806000815250611964565b8061194384611fcf565b604051602001611954929190612efb565b6040516020818303038152906040525b915050919050565b6001816000016000828254019250508190555050565b600073ffffffffffffffffffffffffffffffffffffffff168273ffffffffffffffffffffffffffffffffffffffff16036119f1576040517f08c379a00000000000000000000000000000000000000000000000000000000081526004016119e89061328b565b60405180910390fd5b6119fa81611cad565b15611a3a576040517f08c379a0000000000000000000000000000000000000000000000000000000008152600401611a31906132f7565b60405180910390fd5b611a48600083836001611cee565b611a5181611cad565b15611a91576040517f08c379a0000000000000000000000000000000000000000000000000000000008152600401611a88906132f7565b60405180910390fd5b6001600360008473ffffffffffffffffffffffffffffffffffffffff1673ffffffffffffffffffffffffffffffffffffffff16815260200190815260200160002060008282540192505081905550816002600083815260200190815260200160002060006101000a81548173ffffffffffffffffffffffffffffffffffffffff021916908373ffffffffffffffffffffffffffffffffffffffff160217905550808273ffffffffffffffffffffffffffffffffffffffff16600073ffffffffffffffffffffffffffffffffffffffff167fddf252ad1be2c89b69c2b068fc378daa952ba7f163c4a11628f55a4df523b3ef60405160405180910390a4611b9b600083836001611cf4565b5050565b611ba882611cad565b611be7576040517f08c379a0000000000000000000000000000000000000000000000000000000008152600401611bde90613389565b60405180910390fd5b80600660008481526020019081526020016000209081611c079190613555565b507ff8e1a15aba9398e019f0b49df1a4fde98ee17ae345cb5f6b5e2c27f5033e8ce782604051611c37919061268b565b60405180910390a15050565b60007f01ffc9a7000000000000000000000000000000000000000000000000000000007bffffffffffffffffffffffffffffffffffffffffffffffffffffffff1916827bffffffffffffffffffffffffffffffffffffffffffffffffffffffff1916149050919050565b60008073ffffffffffffffffffffffffffffffffffffffff16611ccf83611622565b73ffffffffffffffffffffffffffffffffffffffff1614159050919050565b50505050565b50505050565b6000611d05826108ca565b9050611d15816000846001611cee565b611d1e826108ca565b90506004600083815260200190815260200160002060006101000a81549073ffffffffffffffffffffffffffffffffffffffff02191690556001600360008373ffffffffffffffffffffffffffffffffffffffff1673ffffffffffffffffffffffffffffffffffffffff168152602001908152602001600020600082825403925050819055506002600083815260200190815260200160002060006101000a81549073ffffffffffffffffffffffffffffffffffffffff021916905581600073ffffffffffffffffffffffffffffffffffffffff168273ffffffffffffffffffffffffffffffffffffffff167fddf252ad1be2c89b69c2b068fc378daa952ba7f163c4a11628f55a4df523b3ef60405160405180910390a4611e44816000846001611cf4565b5050565b6000611e698473ffffffffffffffffffffffffffffffffffffffff1661209d565b15611fc2578373ffffffffffffffffffffffffffffffffffffffff1663150b7a02611e926110f4565b8786866040518563ffffffff1660e01b8152600401611eb4949392919061367c565b6020604051808303816000875af1925050508015611ef057506040513d601f19601f82011682018060405250810190611eed91906136dd565b60015b611f72573d8060008114611f20576040519150601f19603f3d011682016040523d82523d6000602084013e611f25565b606091505b506000815103611f6a576040517f08c379a0000000000000000000000000000000000000000000000000000000008152600401611f619061321f565b60405180910390fd5b805181602001fd5b63150b7a0260e01b7bffffffffffffffffffffffffffffffffffffffffffffffffffffffff1916817bffffffffffffffffffffffffffffffffffffffffffffffffffffffff191614915050611fc7565b600190505b949350505050565b606060006001611fde846120c0565b01905060008167ffffffffffffffff811115611ffd57611ffc61271c565b5b6040519080825280601f01601f19166020018201604052801561202f5781602001600182028036833780820191505090505b509050600082602001820190505b600115612092578080600190039150507f3031323334353637383961626364656600000000000000000000000000000000600a86061a8153600a85816120865761208561370a565b5b0494506000850361203d575b819350505050919050565b6000808273ffffffffffffffffffffffffffffffffffffffff163b119050919050565b600080600090507a184f03e93ff9f4daa797ed6e38ed64bf6a1f010000000000000000831061211e577a184f03e93ff9f4daa797ed6e38ed64bf6a1f01000000000000000083816121145761211361370a565b5b0492506040810190505b6d04ee2d6d415b85acef8100000000831061215b576d04ee2d6d415b85acef810000000083816121515761215061370a565b5b0492506020810190505b662386f26fc10000831061218a57662386f26fc1000083816121805761217f61370a565b5b0492506010810190505b6305f5e10083106121b3576305f5e10083816121a9576121a861370a565b5b0492506008810190505b61271083106121d85761271083816121ce576121cd61370a565b5b0492506004810190505b606483106121fb57606483816121f1576121f061370a565b5b0492506002810190505b600a831061220a576001810190505b80915050919050565b50805461221f90612a36565b6000825580601f106122315750612250565b601f01602090049060005260206000209081019061224f9190612253565b5b50565b5b8082111561226c576000816000905550600101612254565b5090565b6000604051905090565b600080fd5b600080fd5b60007fffffffff0000000000000000000000000000000000000000000000000000000082169050919050565b6122b981612284565b81146122c457600080fd5b50565b6000813590506122d6816122b0565b92915050565b6000602082840312156122f2576122f161227a565b5b6000612300848285016122c7565b91505092915050565b60008115159050919050565b61231e81612309565b82525050565b60006020820190506123396000830184612315565b92915050565b600081519050919050565b600082825260208201905092915050565b60005b8381101561237957808201518184015260208101905061235e565b60008484015250505050565b6000601f19601f8301169050919050565b60006123a18261233f565b6123ab818561234a565b93506123bb81856020860161235b565b6123c481612385565b840191505092915050565b600060208201905081810360008301526123e98184612396565b905092915050565b6000819050919050565b612404816123f1565b811461240f57600080fd5b50565b600081359050612421816123fb565b92915050565b60006020828403121561243d5761243c61227a565b5b600061244b84828501612412565b91505092915050565b600073ffffffffffffffffffffffffffffffffffffffff82169050919050565b600061247f82612454565b9050919050565b61248f81612474565b82525050565b60006020820190506124aa6000830184612486565b92915050565b6124b981612474565b81146124c457600080fd5b50565b6000813590506124d6816124b0565b92915050565b600080604083850312156124f3576124f261227a565b5b6000612501858286016124c7565b925050602061251285828601612412565b9150509250929050565b6000602082840312156125325761253161227a565b5b6000612540848285016124c7565b91505092915050565b600081519050919050565b600082825260208201905092915050565b6000819050602082019050919050565b61257e816123f1565b82525050565b60006125908383612575565b60208301905092915050565b6000602082019050919050565b60006125b482612549565b6125be8185612554565b93506125c983612565565b8060005b838110156125fa5781516125e18882612584565b97506125ec8361259c565b9250506001810190506125cd565b5085935050505092915050565b6000602082019050818103600083015261262181846125a9565b905092915050565b6000806000606084860312156126425761264161227a565b5b6000612650868287016124c7565b9350506020612661868287016124c7565b925050604061267286828701612412565b9150509250925092565b612685816123f1565b82525050565b60006020820190506126a0600083018461267c565b92915050565b6126af81612309565b81146126ba57600080fd5b50565b6000813590506126cc816126a6565b92915050565b600080604083850312156126e9576126e861227a565b5b60006126f7858286016124c7565b9250506020612708858286016126bd565b9150509250929050565b600080fd5b600080fd5b7f4e487b7100000000000000000000000000000000000000000000000000000000600052604160045260246000fd5b61275482612385565b810181811067ffffffffffffffff821117156127735761277261271c565b5b80604052505050565b6000612786612270565b9050612792828261274b565b919050565b600067ffffffffffffffff8211156127b2576127b161271c565b5b6127bb82612385565b9050602081019050919050565b82818337600083830152505050565b60006127ea6127e584612797565b61277c565b90508281526020810184848401111561280657612805612717565b5b6128118482856127c8565b509392505050565b600082601f83011261282e5761282d612712565b5b813561283e8482602086016127d7565b91505092915050565b600080600080608085870312156128615761286061227a565b5b600061286f878288016124c7565b9450506020612880878288016124c7565b935050604061289187828801612412565b925050606085013567ffffffffffffffff8111156128b2576128b161227f565b5b6128be87828801612819565b91505092959194509250565b600080604083850312156128e1576128e061227a565b5b60006128ef858286016124c7565b9250506020612900858286016124c7565b9150509250929050565b600067ffffffffffffffff8211156129255761292461271c565b5b61292e82612385565b9050602081019050919050565b600061294e6129498461290a565b61277c565b90508281526020810184848401111561296a57612969612717565b5b6129758482856127c8565b509392505050565b600082601f83011261299257612991612712565b5b81356129a284826020860161293b565b91505092915050565b600080604083850312156129c2576129c161227a565b5b60006129d0858286016124c7565b925050602083013567ffffffffffffffff8111156129f1576129f061227f565b5b6129fd8582860161297d565b9150509250929050565b7f4e487b7100000000000000000000000000000000000000000000000000000000600052602260045260246000fd5b60006002820490506001821680612a4e57607f821691505b602082108103612a6157612a60612a07565b5b50919050565b7f4552433732313a20617070726f76616c20746f2063757272656e74206f776e6560008201527f7200000000000000000000000000000000000000000000000000000000000000602082015250565b6000612ac360218361234a565b9150612ace82612a67565b604082019050919050565b60006020820190508181036000830152612af281612ab6565b9050919050565b7f4552433732313a20617070726f76652063616c6c6572206973206e6f7420746f60008201527f6b656e206f776e6572206f7220617070726f76656420666f7220616c6c000000602082015250565b6000612b55603d8361234a565b9150612b6082612af9565b604082019050919050565b60006020820190508181036000830152612b8481612b48565b9050919050565b7f4e487b7100000000000000000000000000000000000000000000000000000000600052603260045260246000fd5b7f4e487b7100000000000000000000000000000000000000000000000000000000600052601160045260246000fd5b6000612bf4826123f1565b91507fffffffffffffffffffffffffffffffffffffffffffffffffffffffffffffffff8203612c2657612c25612bba565b5b600182019050919050565b7f4552433732313a2063616c6c6572206973206e6f7420746f6b656e206f776e6560008201527f72206f7220617070726f76656400000000000000000000000000000000000000602082015250565b6000612c8d602d8361234a565b9150612c9882612c31565b604082019050919050565b60006020820190508181036000830152612cbc81612c80565b9050919050565b7f596f7520617265206e6f7420746865206f776e6572206f662074686973204e4660008201527f5400000000000000000000000000000000000000000000000000000000000000602082015250565b6000612d1f60218361234a565b9150612d2a82612cc3565b604082019050919050565b60006020820190508181036000830152612d4e81612d12565b9050919050565b7f4552433732313a20696e76616c696420746f6b656e2049440000000000000000600082015250565b6000612d8b60188361234a565b9150612d9682612d55565b602082019050919050565b60006020820190508181036000830152612dba81612d7e565b9050919050565b7f4552433732313a2061646472657373207a65726f206973206e6f74206120766160008201527f6c6964206f776e65720000000000000000000000000000000000000000000000602082015250565b6000612e1d60298361234a565b9150612e2882612dc1565b604082019050919050565b60006020820190508181036000830152612e4c81612e10565b9050919050565b7f596f7520617265206e6f742074686520466163746f7279546f6b656e00000000600082015250565b6000612e89601c8361234a565b9150612e9482612e53565b602082019050919050565b60006020820190508181036000830152612eb881612e7c565b9050919050565b600081905092915050565b6000612ed58261233f565b612edf8185612ebf565b9350612eef81856020860161235b565b80840191505092915050565b6000612f078285612eca565b9150612f138284612eca565b91508190509392505050565b7f4f776e61626c653a206e6577206f776e657220697320746865207a65726f206160008201527f6464726573730000000000000000000000000000000000000000000000000000602082015250565b6000612f7b60268361234a565b9150612f8682612f1f565b604082019050919050565b60006020820190508181036000830152612faa81612f6e565b9050919050565b7f4552433732313a207472616e736665722066726f6d20696e636f72726563742060008201527f6f776e6572000000000000000000000000000000000000000000000000000000602082015250565b600061300d60258361234a565b915061301882612fb1565b604082019050919050565b6000602082019050818103600083015261303c81613000565b9050919050565b7f4552433732313a207472616e7366657220746f20746865207a65726f2061646460008201527f7265737300000000000000000000000000000000000000000000000000000000602082015250565b600061309f60248361234a565b91506130aa82613043565b604082019050919050565b600060208201905081810360008301526130ce81613092565b9050919050565b7f4f776e61626c653a2063616c6c6572206973206e6f7420746865206f776e6572600082015250565b600061310b60208361234a565b9150613116826130d5565b602082019050919050565b6000602082019050818103600083015261313a816130fe565b9050919050565b7f4552433732313a20617070726f766520746f2063616c6c657200000000000000600082015250565b600061317760198361234a565b915061318282613141565b602082019050919050565b600060208201905081810360008301526131a68161316a565b9050919050565b7f4552433732313a207472616e7366657220746f206e6f6e20455243373231526560008201527f63656976657220696d706c656d656e7465720000000000000000000000000000602082015250565b600061320960328361234a565b9150613214826131ad565b604082019050919050565b60006020820190508181036000830152613238816131fc565b9050919050565b7f4552433732313a206d696e7420746f20746865207a65726f2061646472657373600082015250565b600061327560208361234a565b91506132808261323f565b602082019050919050565b600060208201905081810360008301526132a481613268565b9050919050565b7f4552433732313a20746f6b656e20616c7265616479206d696e74656400000000600082015250565b60006132e1601c8361234a565b91506132ec826132ab565b602082019050919050565b60006020820190508181036000830152613310816132d4565b9050919050565b7f45524337323155524953746f726167653a2055524920736574206f66206e6f6e60008201527f6578697374656e7420746f6b656e000000000000000000000000000000000000602082015250565b6000613373602e8361234a565b915061337e82613317565b604082019050919050565b600060208201905081810360008301526133a281613366565b9050919050565b60008190508160005260206000209050919050565b60006020601f8301049050919050565b600082821b905092915050565b60006008830261340b7fffffffffffffffffffffffffffffffffffffffffffffffffffffffffffffffff826133ce565b61341586836133ce565b95508019841693508086168417925050509392505050565b6000819050919050565b600061345261344d613448846123f1565b61342d565b6123f1565b9050919050565b6000819050919050565b61346c83613437565b61348061347882613459565b8484546133db565b825550505050565b600090565b613495613488565b6134a0818484613463565b505050565b5b818110156134c4576134b960008261348d565b6001810190506134a6565b5050565b601f821115613509576134da816133a9565b6134e3846133be565b810160208510156134f2578190505b6135066134fe856133be565b8301826134a5565b50505b505050565b600082821c905092915050565b600061352c6000198460080261350e565b1980831691505092915050565b6000613545838361351b565b9150826002028217905092915050565b61355e8261233f565b67ffffffffffffffff8111156135775761357661271c565b5b6135818254612a36565b61358c8282856134c8565b600060209050601f8311600181146135bf57600084156135ad578287015190505b6135b78582613539565b86555061361f565b601f1984166135cd866133a9565b60005b828110156135f5578489015182556001820191506020850194506020810190506135d0565b86831015613612578489015161360e601f89168261351b565b8355505b6001600288020188555050505b505050505050565b600081519050919050565b600082825260208201905092915050565b600061364e82613627565b6136588185613632565b935061366881856020860161235b565b61367181612385565b840191505092915050565b60006080820190506136916000830187612486565b61369e6020830186612486565b6136ab604083018561267c565b81810360608301526136bd8184613643565b905095945050505050565b6000815190506136d7816122b0565b92915050565b6000602082840312156136f3576136f261227a565b5b6000613701848285016136c8565b91505092915050565b7f4e487b7100000000000000000000000000000000000000000000000000000000600052601260045260246000fdfea2646970667358221220278ba568f0d886e2131d3fbf955c3c3a270c7e1e0d9f2e03c7cd83630581465964736f6c63430008120033",
  "linkReferences": {},
  "deployedLinkReferences": {}
}