{
  "_format": "hh-sol-artifact-1",
  "contractName": "CampaignTypesTokenERC20",
  "sourceName": "contracts/CampaignTypesTokenERC20.sol",
  "abi": [
    {
      "anonymous": false,
      "inputs": [
        {
          "indexed": true,
          "internalType": "address",
          "name": "owner",
          "type": "address"
        },
        {
          "indexed": true,
          "internalType": "address",
          "name": "spender",
          "type": "address"
        },
        {
          "indexed": false,
          "internalType": "uint256",
          "name": "value",
          "type": "uint256"
        }
      ],
      "name": "Approval",
      "type": "event"
    },
    {
      "anonymous": false,
      "inputs": [
        {
          "indexed": false,
          "internalType": "uint8",
          "name": "version",
          "type": "uint8"
        }
      ],
      "name": "Initialized",
      "type": "event"
    },
    {
      "anonymous": false,
      "inputs": [
        {
          "indexed": true,
          "internalType": "address",
          "name": "previousOwner",
          "type": "address"
        },
        {
          "indexed": true,
          "internalType": "address",
          "name": "newOwner",
          "type": "address"
        }
      ],
      "name": "OwnershipTransferred",
      "type": "event"
    },
    {
      "anonymous": false,
      "inputs": [
        {
          "indexed": true,
          "internalType": "address",
          "name": "from",
          "type": "address"
        },
        {
          "indexed": true,
          "internalType": "address",
          "name": "to",
          "type": "address"
        },
        {
          "indexed": false,
          "internalType": "uint256",
          "name": "value",
          "type": "uint256"
        }
      ],
      "name": "Transfer",
      "type": "event"
    },
    {
      "inputs": [
        {
          "internalType": "address",
          "name": "owner",
          "type": "address"
        },
        {
          "internalType": "address",
          "name": "spender",
          "type": "address"
        }
      ],
      "name": "allowance",
      "outputs": [
        {
          "internalType": "uint256",
          "name": "",
          "type": "uint256"
        }
      ],
      "stateMutability": "view",
      "type": "function"
    },
    {
      "inputs": [
        {
          "internalType": "address",
          "name": "spender",
          "type": "address"
        },
        {
          "internalType": "uint256",
          "name": "amount",
          "type": "uint256"
        }
      ],
      "name": "approve",
      "outputs": [
        {
          "internalType": "bool",
          "name": "",
          "type": "bool"
        }
      ],
      "stateMutability": "nonpayable",
      "type": "function"
    },
    {
      "inputs": [
        {
          "internalType": "address",
          "name": "account",
          "type": "address"
        }
      ],
      "name": "balanceOf",
      "outputs": [
        {
          "internalType": "uint256",
          "name": "",
          "type": "uint256"
        }
      ],
      "stateMutability": "view",
      "type": "function"
    },
    {
      "inputs": [
        {
          "internalType": "address",
          "name": "account",
          "type": "address"
        },
        {
          "internalType": "uint256",
          "name": "amount",
          "type": "uint256"
        }
      ],
      "name": "burn",
      "outputs": [],
      "stateMutability": "nonpayable",
      "type": "function"
    },
    {
      "inputs": [],
      "name": "decimals",
      "outputs": [
        {
          "internalType": "uint8",
          "name": "",
          "type": "uint8"
        }
      ],
      "stateMutability": "view",
      "type": "function"
    },
    {
      "inputs": [
        {
          "internalType": "address",
          "name": "spender",
          "type": "address"
        },
        {
          "internalType": "uint256",
          "name": "subtractedValue",
          "type": "uint256"
        }
      ],
      "name": "decreaseAllowance",
      "outputs": [
        {
          "internalType": "bool",
          "name": "",
          "type": "bool"
        }
      ],
      "stateMutability": "nonpayable",
      "type": "function"
    },
    {
      "inputs": [
        {
          "internalType": "address",
          "name": "spender",
          "type": "address"
        },
        {
          "internalType": "uint256",
          "name": "addedValue",
          "type": "uint256"
        }
      ],
      "name": "increaseAllowance",
      "outputs": [
        {
          "internalType": "bool",
          "name": "",
          "type": "bool"
        }
      ],
      "stateMutability": "nonpayable",
      "type": "function"
    },
    {
      "inputs": [
        {
          "internalType": "string",
          "name": "name",
          "type": "string"
        },
        {
          "internalType": "string",
          "name": "symbol",
          "type": "string"
        }
      ],
      "name": "initialize",
      "outputs": [],
      "stateMutability": "nonpayable",
      "type": "function"
    },
    {
      "inputs": [
        {
          "internalType": "address",
          "name": "account",
          "type": "address"
        },
        {
          "internalType": "uint256",
          "name": "amount",
          "type": "uint256"
        }
      ],
      "name": "mint",
      "outputs": [],
      "stateMutability": "nonpayable",
      "type": "function"
    },
    {
      "inputs": [],
      "name": "name",
      "outputs": [
        {
          "internalType": "string",
          "name": "",
          "type": "string"
        }
      ],
      "stateMutability": "view",
      "type": "function"
    },
    {
      "inputs": [],
      "name": "owner",
      "outputs": [
        {
          "internalType": "address",
          "name": "",
          "type": "address"
        }
      ],
      "stateMutability": "view",
      "type": "function"
    },
    {
      "inputs": [],
      "name": "renounceOwnership",
      "outputs": [],
      "stateMutability": "nonpayable",
      "type": "function"
    },
    {
      "inputs": [],
      "name": "symbol",
      "outputs": [
        {
          "internalType": "string",
          "name": "",
          "type": "string"
        }
      ],
      "stateMutability": "view",
      "type": "function"
    },
    {
      "inputs": [],
      "name": "totalSupply",
      "outputs": [
        {
          "internalType": "uint256",
          "name": "",
          "type": "uint256"
        }
      ],
      "stateMutability": "view",
      "type": "function"
    },
    {
      "inputs": [
        {
          "internalType": "address",
          "name": "to",
          "type": "address"
        },
        {
          "internalType": "uint256",
          "name": "amount",
          "type": "uint256"
        }
      ],
      "name": "transfer",
      "outputs": [
        {
          "internalType": "bool",
          "name": "",
          "type": "bool"
        }
      ],
      "stateMutability": "nonpayable",
      "type": "function"
    },
    {
      "inputs": [
        {
          "internalType": "address",
          "name": "from",
          "type": "address"
        },
        {
          "internalType": "address",
          "name": "to",
          "type": "address"
        },
        {
          "internalType": "uint256",
          "name": "amount",
          "type": "uint256"
        }
      ],
      "name": "transferFrom",
      "outputs": [
        {
          "internalType": "bool",
          "name": "",
          "type": "bool"
        }
      ],
      "stateMutability": "nonpayable",
      "type": "function"
    },
    {
      "inputs": [
        {
          "internalType": "address",
          "name": "newOwner",
          "type": "address"
        }
      ],
      "name": "transferOwnership",
      "outputs": [],
      "stateMutability": "nonpayable",
      "type": "function"
    }
  ],
  "bytecode": "0x608060405234801561001057600080fd5b506123e7806100206000396000f3fe608060405234801561001057600080fd5b506004361061010b5760003560e01c806370a08231116100a25780639dc29fac116100715780639dc29fac146102a8578063a457c2d7146102c4578063a9059cbb146102f4578063dd62ed3e14610324578063f2fde38b146103545761010b565b806370a0823114610232578063715018a6146102625780638da5cb5b1461026c57806395d89b411461028a5761010b565b8063313ce567116100de578063313ce567146101ac57806339509351146101ca57806340c10f19146101fa5780634cd88b76146102165761010b565b806306fdde0314610110578063095ea7b31461012e57806318160ddd1461015e57806323b872dd1461017c575b600080fd5b610118610370565b6040516101259190611458565b60405180910390f35b61014860048036038101906101439190611522565b610402565b604051610155919061157d565b60405180910390f35b610166610425565b60405161017391906115a7565b60405180910390f35b610196600480360381019061019191906115c2565b61042f565b6040516101a3919061157d565b60405180910390f35b6101b461045e565b6040516101c19190611631565b60405180910390f35b6101e460048036038101906101df9190611522565b610467565b6040516101f1919061157d565b60405180910390f35b610214600480360381019061020f9190611522565b61049e565b005b610230600480360381019061022b9190611781565b6104b4565b005b61024c600480360381019061024791906117f9565b6105fe565b60405161025991906115a7565b60405180910390f35b61026a610647565b005b61027461065b565b6040516102819190611835565b60405180910390f35b610292610685565b60405161029f9190611458565b60405180910390f35b6102c260048036038101906102bd9190611522565b610717565b005b6102de60048036038101906102d99190611522565b61072d565b6040516102eb919061157d565b60405180910390f35b61030e60048036038101906103099190611522565b6107a4565b60405161031b919061157d565b60405180910390f35b61033e60048036038101906103399190611850565b6107c7565b60405161034b91906115a7565b60405180910390f35b61036e600480360381019061036991906117f9565b61084e565b005b60606036805461037f906118bf565b80601f01602080910402602001604051908101604052809291908181526020018280546103ab906118bf565b80156103f85780601f106103cd576101008083540402835291602001916103f8565b820191906000526020600020905b8154815290600101906020018083116103db57829003601f168201915b5050505050905090565b60008061040d6108d1565b905061041a8185856108d9565b600191505092915050565b6000603554905090565b60008061043a6108d1565b9050610447858285610aa2565b610452858585610b2e565b60019150509392505050565b60006012905090565b6000806104726108d1565b905061049381858561048485896107c7565b61048e919061191f565b6108d9565b600191505092915050565b6104a6610da7565b6104b08282610e25565b5050565b60008060019054906101000a900460ff161590508080156104e55750600160008054906101000a900460ff1660ff16105b8061051257506104f430610f7c565b1580156105115750600160008054906101000a900460ff1660ff16145b5b610551576040517f08c379a0000000000000000000000000000000000000000000000000000000008152600401610548906119c5565b60405180910390fd5b60016000806101000a81548160ff021916908360ff160217905550801561058e576001600060016101000a81548160ff0219169083151502179055505b6105988383610f9f565b6105a0610ffc565b80156105f95760008060016101000a81548160ff0219169083151502179055507f7f26b83ff96e1f2b6a682f133852f6798a09c465da95921460cefb384740249860016040516105f09190611a2a565b60405180910390a15b505050565b6000603360008373ffffffffffffffffffffffffffffffffffffffff1673ffffffffffffffffffffffffffffffffffffffff168152602001908152602001600020549050919050565b61064f610da7565b6106596000611055565b565b6000606560009054906101000a900473ffffffffffffffffffffffffffffffffffffffff16905090565b606060378054610694906118bf565b80601f01602080910402602001604051908101604052809291908181526020018280546106c0906118bf565b801561070d5780601f106106e25761010080835404028352916020019161070d565b820191906000526020600020905b8154815290600101906020018083116106f057829003601f168201915b5050505050905090565b61071f610da7565b610729828261111b565b5050565b6000806107386108d1565b9050600061074682866107c7565b90508381101561078b576040517f08c379a000000000000000000000000000000000000000000000000000000000815260040161078290611ab7565b60405180910390fd5b61079882868684036108d9565b60019250505092915050565b6000806107af6108d1565b90506107bc818585610b2e565b600191505092915050565b6000603460008473ffffffffffffffffffffffffffffffffffffffff1673ffffffffffffffffffffffffffffffffffffffff16815260200190815260200160002060008373ffffffffffffffffffffffffffffffffffffffff1673ffffffffffffffffffffffffffffffffffffffff16815260200190815260200160002054905092915050565b610856610da7565b600073ffffffffffffffffffffffffffffffffffffffff168173ffffffffffffffffffffffffffffffffffffffff16036108c5576040517f08c379a00000000000000000000000000000000000000000000000000000000081526004016108bc90611b49565b60405180910390fd5b6108ce81611055565b50565b600033905090565b600073ffffffffffffffffffffffffffffffffffffffff168373ffffffffffffffffffffffffffffffffffffffff1603610948576040517f08c379a000000000000000000000000000000000000000000000000000000000815260040161093f90611bdb565b60405180910390fd5b600073ffffffffffffffffffffffffffffffffffffffff168273ffffffffffffffffffffffffffffffffffffffff16036109b7576040517f08c379a00000000000000000000000000000000000000000000000000000000081526004016109ae90611c6d565b60405180910390fd5b80603460008573ffffffffffffffffffffffffffffffffffffffff1673ffffffffffffffffffffffffffffffffffffffff16815260200190815260200160002060008473ffffffffffffffffffffffffffffffffffffffff1673ffffffffffffffffffffffffffffffffffffffff168152602001908152602001600020819055508173ffffffffffffffffffffffffffffffffffffffff168373ffffffffffffffffffffffffffffffffffffffff167f8c5be1e5ebec7d5bd14f71427d1e84f3dd0314c0f7b2291e5b200ac8c7c3b92583604051610a9591906115a7565b60405180910390a3505050565b6000610aae84846107c7565b90507fffffffffffffffffffffffffffffffffffffffffffffffffffffffffffffffff8114610b285781811015610b1a576040517f08c379a0000000000000000000000000000000000000000000000000000000008152600401610b1190611cd9565b60405180910390fd5b610b2784848484036108d9565b5b50505050565b600073ffffffffffffffffffffffffffffffffffffffff168373ffffffffffffffffffffffffffffffffffffffff1603610b9d576040517f08c379a0000000000000000000000000000000000000000000000000000000008152600401610b9490611d6b565b60405180910390fd5b600073ffffffffffffffffffffffffffffffffffffffff168273ffffffffffffffffffffffffffffffffffffffff1603610c0c576040517f08c379a0000000000000000000000000000000000000000000000000000000008152600401610c0390611dfd565b60405180910390fd5b610c178383836112ea565b6000603360008573ffffffffffffffffffffffffffffffffffffffff1673ffffffffffffffffffffffffffffffffffffffff16815260200190815260200160002054905081811015610c9e576040517f08c379a0000000000000000000000000000000000000000000000000000000008152600401610c9590611e8f565b60405180910390fd5b818103603360008673ffffffffffffffffffffffffffffffffffffffff1673ffffffffffffffffffffffffffffffffffffffff1681526020019081526020016000208190555081603360008573ffffffffffffffffffffffffffffffffffffffff1673ffffffffffffffffffffffffffffffffffffffff168152602001908152602001600020600082825401925050819055508273ffffffffffffffffffffffffffffffffffffffff168473ffffffffffffffffffffffffffffffffffffffff167fddf252ad1be2c89b69c2b068fc378daa952ba7f163c4a11628f55a4df523b3ef84604051610d8e91906115a7565b60405180910390a3610da18484846112ef565b50505050565b610daf6108d1565b73ffffffffffffffffffffffffffffffffffffffff16610dcd61065b565b73ffffffffffffffffffffffffffffffffffffffff1614610e23576040517f08c379a0000000000000000000000000000000000000000000000000000000008152600401610e1a90611efb565b60405180910390fd5b565b600073ffffffffffffffffffffffffffffffffffffffff168273ffffffffffffffffffffffffffffffffffffffff1603610e94576040517f08c379a0000000000000000000000000000000000000000000000000000000008152600401610e8b90611f67565b60405180910390fd5b610ea0600083836112ea565b8060356000828254610eb2919061191f565b9250508190555080603360008473ffffffffffffffffffffffffffffffffffffffff1673ffffffffffffffffffffffffffffffffffffffff168152602001908152602001600020600082825401925050819055508173ffffffffffffffffffffffffffffffffffffffff16600073ffffffffffffffffffffffffffffffffffffffff167fddf252ad1be2c89b69c2b068fc378daa952ba7f163c4a11628f55a4df523b3ef83604051610f6491906115a7565b60405180910390a3610f78600083836112ef565b5050565b6000808273ffffffffffffffffffffffffffffffffffffffff163b119050919050565b600060019054906101000a900460ff16610fee576040517f08c379a0000000000000000000000000000000000000000000000000000000008152600401610fe590611ff9565b60405180910390fd5b610ff882826112f4565b5050565b600060019054906101000a900460ff1661104b576040517f08c379a000000000000000000000000000000000000000000000000000000000815260040161104290611ff9565b60405180910390fd5b611053611367565b565b6000606560009054906101000a900473ffffffffffffffffffffffffffffffffffffffff16905081606560006101000a81548173ffffffffffffffffffffffffffffffffffffffff021916908373ffffffffffffffffffffffffffffffffffffffff1602179055508173ffffffffffffffffffffffffffffffffffffffff168173ffffffffffffffffffffffffffffffffffffffff167f8be0079c531659141344cd1fd0a4f28419497f9722a3daafe3b4186f6b6457e060405160405180910390a35050565b600073ffffffffffffffffffffffffffffffffffffffff168273ffffffffffffffffffffffffffffffffffffffff160361118a576040517f08c379a00000000000000000000000000000000000000000000000000000000081526004016111819061208b565b60405180910390fd5b611196826000836112ea565b6000603360008473ffffffffffffffffffffffffffffffffffffffff1673ffffffffffffffffffffffffffffffffffffffff1681526020019081526020016000205490508181101561121d576040517f08c379a00000000000000000000000000000000000000000000000000000000081526004016112149061211d565b60405180910390fd5b818103603360008573ffffffffffffffffffffffffffffffffffffffff1673ffffffffffffffffffffffffffffffffffffffff1681526020019081526020016000208190555081603560008282540392505081905550600073ffffffffffffffffffffffffffffffffffffffff168373ffffffffffffffffffffffffffffffffffffffff167fddf252ad1be2c89b69c2b068fc378daa952ba7f163c4a11628f55a4df523b3ef846040516112d191906115a7565b60405180910390a36112e5836000846112ef565b505050565b505050565b505050565b600060019054906101000a900460ff16611343576040517f08c379a000000000000000000000000000000000000000000000000000000000815260040161133a90611ff9565b60405180910390fd5b816036908161135291906122df565b50806037908161136291906122df565b505050565b600060019054906101000a900460ff166113b6576040517f08c379a00000000000000000000000000000000000000000000000000000000081526004016113ad90611ff9565b60405180910390fd5b6113c66113c16108d1565b611055565b565b600081519050919050565b600082825260208201905092915050565b60005b838110156114025780820151818401526020810190506113e7565b60008484015250505050565b6000601f19601f8301169050919050565b600061142a826113c8565b61143481856113d3565b93506114448185602086016113e4565b61144d8161140e565b840191505092915050565b60006020820190508181036000830152611472818461141f565b905092915050565b6000604051905090565b600080fd5b600080fd5b600073ffffffffffffffffffffffffffffffffffffffff82169050919050565b60006114b98261148e565b9050919050565b6114c9816114ae565b81146114d457600080fd5b50565b6000813590506114e6816114c0565b92915050565b6000819050919050565b6114ff816114ec565b811461150a57600080fd5b50565b60008135905061151c816114f6565b92915050565b6000806040838503121561153957611538611484565b5b6000611547858286016114d7565b92505060206115588582860161150d565b9150509250929050565b60008115159050919050565b61157781611562565b82525050565b6000602082019050611592600083018461156e565b92915050565b6115a1816114ec565b82525050565b60006020820190506115bc6000830184611598565b92915050565b6000806000606084860312156115db576115da611484565b5b60006115e9868287016114d7565b93505060206115fa868287016114d7565b925050604061160b8682870161150d565b9150509250925092565b600060ff82169050919050565b61162b81611615565b82525050565b60006020820190506116466000830184611622565b92915050565b600080fd5b600080fd5b7f4e487b7100000000000000000000000000000000000000000000000000000000600052604160045260246000fd5b61168e8261140e565b810181811067ffffffffffffffff821117156116ad576116ac611656565b5b80604052505050565b60006116c061147a565b90506116cc8282611685565b919050565b600067ffffffffffffffff8211156116ec576116eb611656565b5b6116f58261140e565b9050602081019050919050565b82818337600083830152505050565b600061172461171f846116d1565b6116b6565b9050828152602081018484840111156117405761173f611651565b5b61174b848285611702565b509392505050565b600082601f8301126117685761176761164c565b5b8135611778848260208601611711565b91505092915050565b6000806040838503121561179857611797611484565b5b600083013567ffffffffffffffff8111156117b6576117b5611489565b5b6117c285828601611753565b925050602083013567ffffffffffffffff8111156117e3576117e2611489565b5b6117ef85828601611753565b9150509250929050565b60006020828403121561180f5761180e611484565b5b600061181d848285016114d7565b91505092915050565b61182f816114ae565b82525050565b600060208201905061184a6000830184611826565b92915050565b6000806040838503121561186757611866611484565b5b6000611875858286016114d7565b9250506020611886858286016114d7565b9150509250929050565b7f4e487b7100000000000000000000000000000000000000000000000000000000600052602260045260246000fd5b600060028204905060018216806118d757607f821691505b6020821081036118ea576118e9611890565b5b50919050565b7f4e487b7100000000000000000000000000000000000000000000000000000000600052601160045260246000fd5b600061192a826114ec565b9150611935836114ec565b925082820190508082111561194d5761194c6118f0565b5b92915050565b7f496e697469616c697a61626c653a20636f6e747261637420697320616c72656160008201527f647920696e697469616c697a6564000000000000000000000000000000000000602082015250565b60006119af602e836113d3565b91506119ba82611953565b604082019050919050565b600060208201905081810360008301526119de816119a2565b9050919050565b6000819050919050565b6000819050919050565b6000611a14611a0f611a0a846119e5565b6119ef565b611615565b9050919050565b611a24816119f9565b82525050565b6000602082019050611a3f6000830184611a1b565b92915050565b7f45524332303a2064656372656173656420616c6c6f77616e63652062656c6f7760008201527f207a65726f000000000000000000000000000000000000000000000000000000602082015250565b6000611aa16025836113d3565b9150611aac82611a45565b604082019050919050565b60006020820190508181036000830152611ad081611a94565b9050919050565b7f4f776e61626c653a206e6577206f776e657220697320746865207a65726f206160008201527f6464726573730000000000000000000000000000000000000000000000000000602082015250565b6000611b336026836113d3565b9150611b3e82611ad7565b604082019050919050565b60006020820190508181036000830152611b6281611b26565b9050919050565b7f45524332303a20617070726f76652066726f6d20746865207a65726f2061646460008201527f7265737300000000000000000000000000000000000000000000000000000000602082015250565b6000611bc56024836113d3565b9150611bd082611b69565b604082019050919050565b60006020820190508181036000830152611bf481611bb8565b9050919050565b7f45524332303a20617070726f766520746f20746865207a65726f20616464726560008201527f7373000000000000000000000000000000000000000000000000000000000000602082015250565b6000611c576022836113d3565b9150611c6282611bfb565b604082019050919050565b60006020820190508181036000830152611c8681611c4a565b9050919050565b7f45524332303a20696e73756666696369656e7420616c6c6f77616e6365000000600082015250565b6000611cc3601d836113d3565b9150611cce82611c8d565b602082019050919050565b60006020820190508181036000830152611cf281611cb6565b9050919050565b7f45524332303a207472616e736665722066726f6d20746865207a65726f20616460008201527f6472657373000000000000000000000000000000000000000000000000000000602082015250565b6000611d556025836113d3565b9150611d6082611cf9565b604082019050919050565b60006020820190508181036000830152611d8481611d48565b9050919050565b7f45524332303a207472616e7366657220746f20746865207a65726f206164647260008201527f6573730000000000000000000000000000000000000000000000000000000000602082015250565b6000611de76023836113d3565b9150611df282611d8b565b604082019050919050565b60006020820190508181036000830152611e1681611dda565b9050919050565b7f45524332303a207472616e7366657220616d6f756e742065786365656473206260008201527f616c616e63650000000000000000000000000000000000000000000000000000602082015250565b6000611e796026836113d3565b9150611e8482611e1d565b604082019050919050565b60006020820190508181036000830152611ea881611e6c565b9050919050565b7f4f776e61626c653a2063616c6c6572206973206e6f7420746865206f776e6572600082015250565b6000611ee56020836113d3565b9150611ef082611eaf565b602082019050919050565b60006020820190508181036000830152611f1481611ed8565b9050919050565b7f45524332303a206d696e7420746f20746865207a65726f206164647265737300600082015250565b6000611f51601f836113d3565b9150611f5c82611f1b565b602082019050919050565b60006020820190508181036000830152611f8081611f44565b9050919050565b7f496e697469616c697a61626c653a20636f6e7472616374206973206e6f74206960008201527f6e697469616c697a696e67000000000000000000000000000000000000000000602082015250565b6000611fe3602b836113d3565b9150611fee82611f87565b604082019050919050565b6000602082019050818103600083015261201281611fd6565b9050919050565b7f45524332303a206275726e2066726f6d20746865207a65726f2061646472657360008201527f7300000000000000000000000000000000000000000000000000000000000000602082015250565b60006120756021836113d3565b915061208082612019565b604082019050919050565b600060208201905081810360008301526120a481612068565b9050919050565b7f45524332303a206275726e20616d6f756e7420657863656564732062616c616e60008201527f6365000000000000000000000000000000000000000000000000000000000000602082015250565b60006121076022836113d3565b9150612112826120ab565b604082019050919050565b60006020820190508181036000830152612136816120fa565b9050919050565b60008190508160005260206000209050919050565b60006020601f8301049050919050565b600082821b905092915050565b60006008830261219f7fffffffffffffffffffffffffffffffffffffffffffffffffffffffffffffffff82612162565b6121a98683612162565b95508019841693508086168417925050509392505050565b60006121dc6121d76121d2846114ec565b6119ef565b6114ec565b9050919050565b6000819050919050565b6121f6836121c1565b61220a612202826121e3565b84845461216f565b825550505050565b600090565b61221f612212565b61222a8184846121ed565b505050565b5b8181101561224e57612243600082612217565b600181019050612230565b5050565b601f821115612293576122648161213d565b61226d84612152565b8101602085101561227c578190505b61229061228885612152565b83018261222f565b50505b505050565b600082821c905092915050565b60006122b660001984600802612298565b1980831691505092915050565b60006122cf83836122a5565b9150826002028217905092915050565b6122e8826113c8565b67ffffffffffffffff81111561230157612300611656565b5b61230b82546118bf565b612316828285612252565b600060209050601f8311600181146123495760008415612337578287015190505b61234185826122c3565b8655506123a9565b601f1984166123578661213d565b60005b8281101561237f5784890151825560018201915060208501945060208101905061235a565b8683101561239c5784890151612398601f8916826122a5565b8355505b6001600288020188555050505b50505050505056fea264697066735822122062549e864a8686fd8b71b760d133798a30d105e2e3ef41473622841114b58f8664736f6c63430008120033",
  "linkReferences": {},
  "deployedLinkReferences": {}
}