{
  "_format": "hh-sol-artifact-1",
  "contractName": "TokenSale",
  "sourceName": "contracts/TokenSale.sol",
  "abi": [
    {
      "inputs": [
        {
          "internalType": "address",
          "name": "_tokenAddress",
          "type": "address"
        },
        {
          "internalType": "address",
          "name": "_usdtAddress",
          "type": "address"
        }
      ],
      "stateMutability": "nonpayable",
      "type": "constructor"
    },
    {
      "anonymous": false,
      "inputs": [
        {
          "indexed": true,
          "internalType": "address",
          "name": "previousOwner",
          "type": "address"
        },
        {
          "indexed": true,
          "internalType": "address",
          "name": "newOwner",
          "type": "address"
        }
      ],
      "name": "OwnershipTransferred",
      "type": "event"
    },
    {
      "inputs": [
        {
          "internalType": "uint256",
          "name": "_packageName",
          "type": "uint256"
        },
        {
          "internalType": "uint256",
          "name": "_usdtSend",
          "type": "uint256"
        }
      ],
      "name": "buyPackage",
      "outputs": [],
      "stateMutability": "nonpayable",
      "type": "function"
    },
    {
      "inputs": [],
      "name": "checkSlotBasic",
      "outputs": [
        {
          "internalType": "uint256",
          "name": "",
          "type": "uint256"
        }
      ],
      "stateMutability": "view",
      "type": "function"
    },
    {
      "inputs": [
        {
          "internalType": "uint256",
          "name": "_packageName",
          "type": "uint256"
        }
      ],
      "name": "getPrice",
      "outputs": [
        {
          "internalType": "uint256",
          "name": "",
          "type": "uint256"
        }
      ],
      "stateMutability": "view",
      "type": "function"
    },
    {
      "inputs": [],
      "name": "owner",
      "outputs": [
        {
          "internalType": "address",
          "name": "",
          "type": "address"
        }
      ],
      "stateMutability": "view",
      "type": "function"
    },
    {
      "inputs": [
        {
          "internalType": "enum TokenSale.Rank",
          "name": "",
          "type": "uint8"
        }
      ],
      "name": "packages",
      "outputs": [
        {
          "internalType": "uint256",
          "name": "priceUsdt",
          "type": "uint256"
        },
        {
          "internalType": "uint256",
          "name": "tokens",
          "type": "uint256"
        }
      ],
      "stateMutability": "view",
      "type": "function"
    },
    {
      "inputs": [
        {
          "internalType": "address",
          "name": "",
          "type": "address"
        }
      ],
      "name": "referrals",
      "outputs": [
        {
          "internalType": "address",
          "name": "",
          "type": "address"
        }
      ],
      "stateMutability": "view",
      "type": "function"
    },
    {
      "inputs": [],
      "name": "renounceOwnership",
      "outputs": [],
      "stateMutability": "nonpayable",
      "type": "function"
    },
    {
      "inputs": [
        {
          "internalType": "uint256",
          "name": "_packageName",
          "type": "uint256"
        },
        {
          "internalType": "uint256",
          "name": "_priceUsdt",
          "type": "uint256"
        },
        {
          "internalType": "uint256",
          "name": "_tokens",
          "type": "uint256"
        }
      ],
      "name": "setPackage",
      "outputs": [],
      "stateMutability": "nonpayable",
      "type": "function"
    },
    {
      "inputs": [],
      "name": "token",
      "outputs": [
        {
          "internalType": "contract IERC20",
          "name": "",
          "type": "address"
        }
      ],
      "stateMutability": "view",
      "type": "function"
    },
    {
      "inputs": [],
      "name": "totalSupply",
      "outputs": [
        {
          "internalType": "uint256",
          "name": "",
          "type": "uint256"
        }
      ],
      "stateMutability": "view",
      "type": "function"
    },
    {
      "inputs": [
        {
          "internalType": "address",
          "name": "newOwner",
          "type": "address"
        }
      ],
      "name": "transferOwnership",
      "outputs": [],
      "stateMutability": "nonpayable",
      "type": "function"
    },
    {
      "inputs": [],
      "name": "usdt",
      "outputs": [
        {
          "internalType": "contract IERC20",
          "name": "",
          "type": "address"
        }
      ],
      "stateMutability": "view",
      "type": "function"
    },
    {
      "inputs": [
        {
          "internalType": "address",
          "name": "",
          "type": "address"
        }
      ],
      "name": "userLevels",
      "outputs": [
        {
          "internalType": "uint256",
          "name": "",
          "type": "uint256"
        }
      ],
      "stateMutability": "view",
      "type": "function"
    },
    {
      "inputs": [],
      "name": "withdrawEther",
      "outputs": [],
      "stateMutability": "nonpayable",
      "type": "function"
    },
    {
      "inputs": [],
      "name": "withdrawUSDT",
      "outputs": [],
      "stateMutability": "nonpayable",
      "type": "function"
    }
  ],
  "bytecode": "0x60806040523480156200001157600080fd5b50604051620018d6380380620018d683398181016040528101906200003791906200040c565b620000576200004b620002d660201b60201c565b620002de60201b60201c565b81600160006101000a81548173ffffffffffffffffffffffffffffffffffffffff021916908373ffffffffffffffffffffffffffffffffffffffff16021790555080600260006101000a81548173ffffffffffffffffffffffffffffffffffffffff021916908373ffffffffffffffffffffffffffffffffffffffff1602179055506040518060400160405280683635c9adc5dea00000815260200169021e19e0c9bab2400000815250600460008060038111156200011b576200011a62000453565b5b600381111562000130576200012f62000453565b5b81526020019081526020016000206000820151816000015560208201518160010155905050604051806040016040528069021e19e0c9bab2400000815260200169152d02c7e14af6800000815250600460006001600381111562000199576200019862000453565b5b6003811115620001ae57620001ad62000453565b5b81526020019081526020016000206000820151816000015560208201518160010155905050604051806040016040528069043c33c19375648000008152602001692a5a058fc295ed000000815250600460006002600381111562000217576200021662000453565b5b60038111156200022c576200022b62000453565b5b81526020019081526020016000206000820151816000015560208201518160010155905050604051806040016040528069098774738bc8222000008152602001695f4a8c8375d1554000008152506004600060038081111562000294576200029362000453565b5b6003811115620002a957620002a862000453565b5b81526020019081526020016000206000820151816000015560208201518160010155905050505062000482565b600033905090565b60008060009054906101000a900473ffffffffffffffffffffffffffffffffffffffff169050816000806101000a81548173ffffffffffffffffffffffffffffffffffffffff021916908373ffffffffffffffffffffffffffffffffffffffff1602179055508173ffffffffffffffffffffffffffffffffffffffff168173ffffffffffffffffffffffffffffffffffffffff167f8be0079c531659141344cd1fd0a4f28419497f9722a3daafe3b4186f6b6457e060405160405180910390a35050565b600080fd5b600073ffffffffffffffffffffffffffffffffffffffff82169050919050565b6000620003d482620003a7565b9050919050565b620003e681620003c7565b8114620003f257600080fd5b50565b6000815190506200040681620003db565b92915050565b60008060408385031215620004265762000425620003a2565b5b60006200043685828601620003f5565b92505060206200044985828601620003f5565b9150509250929050565b7f4e487b7100000000000000000000000000000000000000000000000000000000600052602160045260246000fd5b61144480620004926000396000f3fe608060405234801561001057600080fd5b50600436106100f55760003560e01c80637362377b11610097578063e4a1f4d111610066578063e4a1f4d114610228578063e757223014610259578063f2fde38b14610289578063fc0c546a146102a5576100f5565b80637362377b146101b457806382447134146101be5780638da5cb5b146101da5780639ca423b3146101f8576100f5565b806330413ccf116100d357806330413ccf14610152578063358d58fa14610182578063362e496b146101a0578063715018a6146101aa576100f5565b806318160ddd146100fa57806325b52acf146101185780632f48ab7d14610134575b600080fd5b6101026102c3565b60405161010f9190610d6c565b60405180910390f35b610132600480360381019061012d9190610db8565b6102c9565b005b61013c6107a8565b6040516101499190610e77565b60405180910390f35b61016c60048036038101906101679190610ed0565b6107ce565b6040516101799190610d6c565b60405180910390f35b61018a6107e6565b6040516101979190610d6c565b60405180910390f35b6101a86107f0565b005b6101b261093d565b005b6101bc610951565b005b6101d860048036038101906101d39190610efd565b6109a9565b005b6101e2610a2b565b6040516101ef9190610f5f565b60405180910390f35b610212600480360381019061020d9190610ed0565b610a54565b60405161021f9190610f5f565b60405180910390f35b610242600480360381019061023d9190610f9f565b610a87565b604051610250929190610fcc565b60405180910390f35b610273600480360381019061026e9190610ff5565b610aab565b6040516102809190610d6c565b60405180910390f35b6102a3600480360381019061029e9190610ed0565b610b60565b005b6102ad610be3565b6040516102ba9190610e77565b60405180910390f35b60035481565b600460008360038111156102e0576102df611022565b5b60038111156102f2576102f1611022565b5b600381111561030457610303611022565b5b815260200190815260200160002060010154600160009054906101000a900473ffffffffffffffffffffffffffffffffffffffff1673ffffffffffffffffffffffffffffffffffffffff166370a08231306040518263ffffffff1660e01b81526004016103719190610f5f565b602060405180830381865afa15801561038e573d6000803e3d6000fd5b505050506040513d601f19601f820116820180604052508101906103b29190611066565b10156103f3576040517f08c379a00000000000000000000000000000000000000000000000000000000081526004016103ea906110f0565b60405180910390fd5b6000600381111561040757610406611022565b5b82600381111561041a57610419611022565b5b600381111561042c5761042b611022565b5b03610589576103e86003541161056a5768056bc75e2d63100000811015610488576040517f08c379a000000000000000000000000000000000000000000000000000000000815260040161047f9061115c565b60405180910390fd5b600260009054906101000a900473ffffffffffffffffffffffffffffffffffffffff1673ffffffffffffffffffffffffffffffffffffffff166323b872dd3330846040518463ffffffff1660e01b81526004016104e79392919061117c565b6020604051808303816000875af1158015610506573d6000803e3d6000fd5b505050506040513d601f19601f8201168201806040525081019061052a91906111eb565b610569576040517f08c379a000000000000000000000000000000000000000000000000000000000815260040161056090611264565b60405180910390fd5b5b60016003600082825461057d91906112b3565b925050819055506106b7565b600260009054906101000a900473ffffffffffffffffffffffffffffffffffffffff1673ffffffffffffffffffffffffffffffffffffffff166323b872dd3330600460008760038111156105e0576105df611022565b5b60038111156105f2576105f1611022565b5b600381111561060457610603611022565b5b8152602001908152602001600020600001546040518463ffffffff1660e01b81526004016106349392919061117c565b6020604051808303816000875af1158015610653573d6000803e3d6000fd5b505050506040513d601f19601f8201168201806040525081019061067791906111eb565b6106b6576040517f08c379a00000000000000000000000000000000000000000000000000000000081526004016106ad90611264565b60405180910390fd5b5b600160009054906101000a900473ffffffffffffffffffffffffffffffffffffffff1673ffffffffffffffffffffffffffffffffffffffff1663a9059cbb336004600086600381111561070d5761070c611022565b5b600381111561071f5761071e611022565b5b600381111561073157610730611022565b5b8152602001908152602001600020600101546040518363ffffffff1660e01b81526004016107609291906112e7565b6020604051808303816000875af115801561077f573d6000803e3d6000fd5b505050506040513d601f19601f820116820180604052508101906107a391906111eb565b505050565b600260009054906101000a900473ffffffffffffffffffffffffffffffffffffffff1681565b60066020528060005260406000206000915090505481565b6000600354905090565b6107f8610c09565b600260009054906101000a900473ffffffffffffffffffffffffffffffffffffffff1673ffffffffffffffffffffffffffffffffffffffff1663a9059cbb61083e610a2b565b600260009054906101000a900473ffffffffffffffffffffffffffffffffffffffff1673ffffffffffffffffffffffffffffffffffffffff166370a08231306040518263ffffffff1660e01b81526004016108999190610f5f565b602060405180830381865afa1580156108b6573d6000803e3d6000fd5b505050506040513d601f19601f820116820180604052508101906108da9190611066565b6040518363ffffffff1660e01b81526004016108f79291906112e7565b6020604051808303816000875af1158015610916573d6000803e3d6000fd5b505050506040513d601f19601f8201168201806040525081019061093a91906111eb565b50565b610945610c09565b61094f6000610c87565b565b610959610c09565b610961610a2b565b73ffffffffffffffffffffffffffffffffffffffff166108fc479081150290604051600060405180830381858888f193505050501580156109a6573d6000803e3d6000fd5b50565b6109b1610c09565b604051806040016040528083815260200182815250600460008560038111156109dd576109dc611022565b5b60038111156109ef576109ee611022565b5b6003811115610a0157610a00611022565b5b81526020019081526020016000206000820151816000015560208201518160010155905050505050565b60008060009054906101000a900473ffffffffffffffffffffffffffffffffffffffff16905090565b60056020528060005260406000206000915054906101000a900473ffffffffffffffffffffffffffffffffffffffff1681565b60046020528060005260406000206000915090508060000154908060010154905082565b6000806003811115610ac057610abf611022565b5b826003811115610ad357610ad2611022565b5b6003811115610ae557610ae4611022565b5b148015610af557506103e8600354105b15610b0b5768056bc75e2d631000009050610b5b565b60046000836003811115610b2257610b21611022565b5b6003811115610b3457610b33611022565b5b6003811115610b4657610b45611022565b5b81526020019081526020016000206000015490505b919050565b610b68610c09565b600073ffffffffffffffffffffffffffffffffffffffff168173ffffffffffffffffffffffffffffffffffffffff1603610bd7576040517f08c379a0000000000000000000000000000000000000000000000000000000008152600401610bce90611382565b60405180910390fd5b610be081610c87565b50565b600160009054906101000a900473ffffffffffffffffffffffffffffffffffffffff1681565b610c11610d4b565b73ffffffffffffffffffffffffffffffffffffffff16610c2f610a2b565b73ffffffffffffffffffffffffffffffffffffffff1614610c85576040517f08c379a0000000000000000000000000000000000000000000000000000000008152600401610c7c906113ee565b60405180910390fd5b565b60008060009054906101000a900473ffffffffffffffffffffffffffffffffffffffff169050816000806101000a81548173ffffffffffffffffffffffffffffffffffffffff021916908373ffffffffffffffffffffffffffffffffffffffff1602179055508173ffffffffffffffffffffffffffffffffffffffff168173ffffffffffffffffffffffffffffffffffffffff167f8be0079c531659141344cd1fd0a4f28419497f9722a3daafe3b4186f6b6457e060405160405180910390a35050565b600033905090565b6000819050919050565b610d6681610d53565b82525050565b6000602082019050610d816000830184610d5d565b92915050565b600080fd5b610d9581610d53565b8114610da057600080fd5b50565b600081359050610db281610d8c565b92915050565b60008060408385031215610dcf57610dce610d87565b5b6000610ddd85828601610da3565b9250506020610dee85828601610da3565b9150509250929050565b600073ffffffffffffffffffffffffffffffffffffffff82169050919050565b6000819050919050565b6000610e3d610e38610e3384610df8565b610e18565b610df8565b9050919050565b6000610e4f82610e22565b9050919050565b6000610e6182610e44565b9050919050565b610e7181610e56565b82525050565b6000602082019050610e8c6000830184610e68565b92915050565b6000610e9d82610df8565b9050919050565b610ead81610e92565b8114610eb857600080fd5b50565b600081359050610eca81610ea4565b92915050565b600060208284031215610ee657610ee5610d87565b5b6000610ef484828501610ebb565b91505092915050565b600080600060608486031215610f1657610f15610d87565b5b6000610f2486828701610da3565b9350506020610f3586828701610da3565b9250506040610f4686828701610da3565b9150509250925092565b610f5981610e92565b82525050565b6000602082019050610f746000830184610f50565b92915050565b60048110610f8757600080fd5b50565b600081359050610f9981610f7a565b92915050565b600060208284031215610fb557610fb4610d87565b5b6000610fc384828501610f8a565b91505092915050565b6000604082019050610fe16000830185610d5d565b610fee6020830184610d5d565b9392505050565b60006020828403121561100b5761100a610d87565b5b600061101984828501610da3565b91505092915050565b7f4e487b7100000000000000000000000000000000000000000000000000000000600052602160045260246000fd5b60008151905061106081610d8c565b92915050565b60006020828403121561107c5761107b610d87565b5b600061108a84828501611051565b91505092915050565b600082825260208201905092915050565b7f546f6b656e53616c653a206e6f7420656e6f75676820746f6b656e7300000000600082015250565b60006110da601c83611093565b91506110e5826110a4565b602082019050919050565b60006020820190508181036000830152611109816110cd565b9050919050565b7f546f6b656e53616c653a20696e76616c69642070726963650000000000000000600082015250565b6000611146601883611093565b915061115182611110565b602082019050919050565b6000602082019050818103600083015261117581611139565b9050919050565b60006060820190506111916000830186610f50565b61119e6020830185610f50565b6111ab6040830184610d5d565b949350505050565b60008115159050919050565b6111c8816111b3565b81146111d357600080fd5b50565b6000815190506111e5816111bf565b92915050565b60006020828403121561120157611200610d87565b5b600061120f848285016111d6565b91505092915050565b7f546f6b656e53616c653a207472616e73666572206661696c6564000000000000600082015250565b600061124e601a83611093565b915061125982611218565b602082019050919050565b6000602082019050818103600083015261127d81611241565b9050919050565b7f4e487b7100000000000000000000000000000000000000000000000000000000600052601160045260246000fd5b60006112be82610d53565b91506112c983610d53565b92508282019050808211156112e1576112e0611284565b5b92915050565b60006040820190506112fc6000830185610f50565b6113096020830184610d5d565b9392505050565b7f4f776e61626c653a206e6577206f776e657220697320746865207a65726f206160008201527f6464726573730000000000000000000000000000000000000000000000000000602082015250565b600061136c602683611093565b915061137782611310565b604082019050919050565b6000602082019050818103600083015261139b8161135f565b9050919050565b7f4f776e61626c653a2063616c6c6572206973206e6f7420746865206f776e6572600082015250565b60006113d8602083611093565b91506113e3826113a2565b602082019050919050565b60006020820190508181036000830152611407816113cb565b905091905056fea2646970667358221220401eaddfa33f7f326be2419d03a66245a03301833bd714632f825a2e9a8e3fa464736f6c63430008120033",
  "linkReferences": {},
  "deployedLinkReferences": {}
}