{
  "_format": "hh-sol-artifact-1",
  "contractName": "FactoryToken",
  "sourceName": "contracts/FactoryToken.sol",
  "abi": [
    {
      "inputs": [
        {
          "internalType": "address",
          "name": "_campaignTypesTokenERC20Template",
          "type": "address"
        },
        {
          "internalType": "address",
          "name": "_nft",
          "type": "address"
        }
      ],
      "stateMutability": "nonpayable",
      "type": "constructor"
    },
    {
      "anonymous": false,
      "inputs": [
        {
          "indexed": false,
          "internalType": "address",
          "name": "owner",
          "type": "address"
        },
        {
          "indexed": false,
          "internalType": "address",
          "name": "campaignAddress",
          "type": "address"
        },
        {
          "indexed": true,
          "internalType": "uint256",
          "name": "NFTID",
          "type": "uint256"
        }
      ],
      "name": "CampaignCreated",
      "type": "event"
    },
    {
      "anonymous": false,
      "inputs": [
        {
          "indexed": true,
          "internalType": "address",
          "name": "previousOwner",
          "type": "address"
        },
        {
          "indexed": true,
          "internalType": "address",
          "name": "newOwner",
          "type": "address"
        }
      ],
      "name": "OwnershipTransferred",
      "type": "event"
    },
    {
      "inputs": [
        {
          "internalType": "uint256",
          "name": "",
          "type": "uint256"
        }
      ],
      "name": "NFTsUsed",
      "outputs": [
        {
          "internalType": "bool",
          "name": "",
          "type": "bool"
        }
      ],
      "stateMutability": "view",
      "type": "function"
    },
    {
      "inputs": [
        {
          "internalType": "address",
          "name": "_address",
          "type": "address"
        }
      ],
      "name": "addSlotMintNFT",
      "outputs": [],
      "stateMutability": "nonpayable",
      "type": "function"
    },
    {
      "inputs": [],
      "name": "campaignTypesTokenERC20Template",
      "outputs": [
        {
          "internalType": "address",
          "name": "",
          "type": "address"
        }
      ],
      "stateMutability": "view",
      "type": "function"
    },
    {
      "inputs": [
        {
          "internalType": "address",
          "name": "",
          "type": "address"
        }
      ],
      "name": "campaigns",
      "outputs": [
        {
          "internalType": "uint256",
          "name": "",
          "type": "uint256"
        }
      ],
      "stateMutability": "view",
      "type": "function"
    },
    {
      "inputs": [
        {
          "internalType": "uint256",
          "name": "",
          "type": "uint256"
        }
      ],
      "name": "campaignsByID",
      "outputs": [
        {
          "internalType": "address",
          "name": "owner",
          "type": "address"
        },
        {
          "internalType": "address",
          "name": "campaignAddress",
          "type": "address"
        },
        {
          "internalType": "uint256",
          "name": "NFTID",
          "type": "uint256"
        }
      ],
      "stateMutability": "view",
      "type": "function"
    },
    {
      "inputs": [
        {
          "internalType": "address",
          "name": "",
          "type": "address"
        },
        {
          "internalType": "uint256",
          "name": "",
          "type": "uint256"
        }
      ],
      "name": "campaignsByOwner",
      "outputs": [
        {
          "internalType": "address",
          "name": "",
          "type": "address"
        }
      ],
      "stateMutability": "view",
      "type": "function"
    },
    {
      "inputs": [
        {
          "internalType": "string",
          "name": "_name",
          "type": "string"
        },
        {
          "internalType": "string",
          "name": "_symbol",
          "type": "string"
        },
        {
          "internalType": "uint256",
          "name": "_NFTID",
          "type": "uint256"
        }
      ],
      "name": "createNewCampaign",
      "outputs": [],
      "stateMutability": "nonpayable",
      "type": "function"
    },
    {
      "inputs": [
        {
          "internalType": "address",
          "name": "_owner",
          "type": "address"
        }
      ],
      "name": "getAllCampaignsByOwner",
      "outputs": [
        {
          "internalType": "address[]",
          "name": "",
          "type": "address[]"
        }
      ],
      "stateMutability": "view",
      "type": "function"
    },
    {
      "inputs": [
        {
          "internalType": "address",
          "name": "_users",
          "type": "address"
        }
      ],
      "name": "getNFTReadyCreate",
      "outputs": [
        {
          "internalType": "uint256[]",
          "name": "",
          "type": "uint256[]"
        }
      ],
      "stateMutability": "view",
      "type": "function"
    },
    {
      "inputs": [
        {
          "internalType": "string",
          "name": "_tokenURI",
          "type": "string"
        }
      ],
      "name": "mintNFT",
      "outputs": [],
      "stateMutability": "nonpayable",
      "type": "function"
    },
    {
      "inputs": [],
      "name": "owner",
      "outputs": [
        {
          "internalType": "address",
          "name": "",
          "type": "address"
        }
      ],
      "stateMutability": "view",
      "type": "function"
    },
    {
      "inputs": [],
      "name": "renounceOwnership",
      "outputs": [],
      "stateMutability": "nonpayable",
      "type": "function"
    },
    {
      "inputs": [
        {
          "internalType": "address",
          "name": "",
          "type": "address"
        }
      ],
      "name": "slotMintNFT",
      "outputs": [
        {
          "internalType": "uint256",
          "name": "",
          "type": "uint256"
        }
      ],
      "stateMutability": "view",
      "type": "function"
    },
    {
      "inputs": [
        {
          "internalType": "address",
          "name": "newOwner",
          "type": "address"
        }
      ],
      "name": "transferOwnership",
      "outputs": [],
      "stateMutability": "nonpayable",
      "type": "function"
    },
    {
      "inputs": [
        {
          "internalType": "uint256",
          "name": "_NFTID",
          "type": "uint256"
        }
      ],
      "name": "withdrawNFT",
      "outputs": [],
      "stateMutability": "nonpayable",
      "type": "function"
    }
  ],
  "bytecode": "0x60806040523480156200001157600080fd5b50604051620024b1380380620024b1833981810160405281019062000037919062000217565b620000576200004b620000e160201b60201c565b620000e960201b60201c565b81600160006101000a81548173ffffffffffffffffffffffffffffffffffffffff021916908373ffffffffffffffffffffffffffffffffffffffff16021790555080600260006101000a81548173ffffffffffffffffffffffffffffffffffffffff021916908373ffffffffffffffffffffffffffffffffffffffff16021790555050506200025e565b600033905090565b60008060009054906101000a900473ffffffffffffffffffffffffffffffffffffffff169050816000806101000a81548173ffffffffffffffffffffffffffffffffffffffff021916908373ffffffffffffffffffffffffffffffffffffffff1602179055508173ffffffffffffffffffffffffffffffffffffffff168173ffffffffffffffffffffffffffffffffffffffff167f8be0079c531659141344cd1fd0a4f28419497f9722a3daafe3b4186f6b6457e060405160405180910390a35050565b600080fd5b600073ffffffffffffffffffffffffffffffffffffffff82169050919050565b6000620001df82620001b2565b9050919050565b620001f181620001d2565b8114620001fd57600080fd5b50565b6000815190506200021181620001e6565b92915050565b60008060408385031215620002315762000230620001ad565b5b6000620002418582860162000200565b9250506020620002548582860162000200565b9150509250929050565b612243806200026e6000396000f3fe608060405234801561001057600080fd5b50600436106100f55760003560e01c80638da5cb5b11610097578063d60a7e3511610066578063d60a7e3514610298578063de2438f4146102c8578063f2fde38b146102e6578063fb37e88314610302576100f5565b80638da5cb5b146101fc578063a2c150eb1461021a578063b47dca4e1461024a578063d24d72d814610266576100f5565b80631c0704da116100d35780631c0704da1461017657806326ee3fad14610192578063715018a6146101c2578063884a0efe146101cc576100f5565b8063023245d7146100fa5780631601d0b514610116578063198dccbb14610146575b600080fd5b610114600480360381019061010f9190611464565b61031e565b005b610130600480360381019061012b91906114ef565b610563565b60405161013d919061152b565b60405180910390f35b610160600480360381019061015b9190611546565b61057b565b60405161016d9190611595565b60405180910390f35b610190600480360381019061018b91906116f6565b6105c9565b005b6101ac60048036038101906101a791906114ef565b610bab565b6040516101b9919061183f565b60405180910390f35b6101ca610c78565b005b6101e660048036038101906101e191906114ef565b610c8c565b6040516101f3919061191f565b60405180910390f35b610204610e3c565b6040516102119190611595565b60405180910390f35b610234600480360381019061022f9190611464565b610e65565b604051610241919061195c565b60405180910390f35b610264600480360381019061025f91906114ef565b610e85565b005b610280600480360381019061027b9190611464565b610ee7565b60405161028f93929190611977565b60405180910390f35b6102b260048036038101906102ad91906114ef565b610f51565b6040516102bf919061152b565b60405180910390f35b6102d0610f69565b6040516102dd9190611595565b60405180910390f35b61030060048036038101906102fb91906114ef565b610f8f565b005b61031c600480360381019061031791906119ae565b611012565b005b600060056000838152602001908152602001600020905060008160010160009054906101000a900473ffffffffffffffffffffffffffffffffffffffff1690508160000160009054906101000a900473ffffffffffffffffffffffffffffffffffffffff1673ffffffffffffffffffffffffffffffffffffffff163373ffffffffffffffffffffffffffffffffffffffff16146103f0576040517f08c379a00000000000000000000000000000000000000000000000000000000081526004016103e790611a7a565b60405180910390fd5b60008173ffffffffffffffffffffffffffffffffffffffff166318160ddd6040518163ffffffff1660e01b8152600401602060405180830381865afa15801561043d573d6000803e3d6000fd5b505050506040513d601f19601f820116820180604052508101906104619190611aaf565b146104a1576040517f08c379a000000000000000000000000000000000000000000000000000000000815260040161049890611b4e565b60405180910390fd5b600260009054906101000a900473ffffffffffffffffffffffffffffffffffffffff1673ffffffffffffffffffffffffffffffffffffffff166323b872dd3033866040518463ffffffff1660e01b815260040161050093929190611977565b600060405180830381600087803b15801561051a57600080fd5b505af115801561052e573d6000803e3d6000fd5b5050505060006007600085815260200190815260200160002060006101000a81548160ff021916908315150217905550505050565b60036020528060005260406000206000915090505481565b6004602052816000526040600020818154811061059757600080fd5b906000526020600020016000915091509054906101000a900473ffffffffffffffffffffffffffffffffffffffff1681565b6000600360003373ffffffffffffffffffffffffffffffffffffffff1673ffffffffffffffffffffffffffffffffffffffff168152602001908152602001600020541161064b576040517f08c379a000000000000000000000000000000000000000000000000000000000815260040161064290611bba565b60405180910390fd5b3373ffffffffffffffffffffffffffffffffffffffff16600260009054906101000a900473ffffffffffffffffffffffffffffffffffffffff1673ffffffffffffffffffffffffffffffffffffffff16636352211e836040518263ffffffff1660e01b81526004016106bd919061152b565b602060405180830381865afa1580156106da573d6000803e3d6000fd5b505050506040513d601f19601f820116820180604052508101906106fe9190611bef565b73ffffffffffffffffffffffffffffffffffffffff1614610754576040517f08c379a000000000000000000000000000000000000000000000000000000000815260040161074b90611c8e565b60405180910390fd5b600015156007600083815260200190815260200160002060009054906101000a900460ff161515146107bb576040517f08c379a00000000000000000000000000000000000000000000000000000000081526004016107b290611cfa565b60405180910390fd5b60006107e8600160009054906101000a900473ffffffffffffffffffffffffffffffffffffffff16611216565b90508073ffffffffffffffffffffffffffffffffffffffff16634cd88b7685856040518363ffffffff1660e01b8152600401610825929190611d88565b600060405180830381600087803b15801561083f57600080fd5b505af1158015610853573d6000803e3d6000fd5b505050508073ffffffffffffffffffffffffffffffffffffffff1663f2fde38b336040518263ffffffff1660e01b81526004016108909190611595565b600060405180830381600087803b1580156108aa57600080fd5b505af11580156108be573d6000803e3d6000fd5b50505050600460003373ffffffffffffffffffffffffffffffffffffffff1673ffffffffffffffffffffffffffffffffffffffff168152602001908152602001600020819080600181540180825580915050600190039060005260206000200160009091909190916101000a81548173ffffffffffffffffffffffffffffffffffffffff021916908373ffffffffffffffffffffffffffffffffffffffff1602179055506001600360003373ffffffffffffffffffffffffffffffffffffffff1673ffffffffffffffffffffffffffffffffffffffff16815260200190815260200160002060008282546109b29190611dee565b9250508190555060016007600084815260200190815260200160002060006101000a81548160ff02191690831515021790555060405180606001604052803373ffffffffffffffffffffffffffffffffffffffff1681526020018273ffffffffffffffffffffffffffffffffffffffff168152602001838152506005600084815260200190815260200160002060008201518160000160006101000a81548173ffffffffffffffffffffffffffffffffffffffff021916908373ffffffffffffffffffffffffffffffffffffffff16021790555060208201518160010160006101000a81548173ffffffffffffffffffffffffffffffffffffffff021916908373ffffffffffffffffffffffffffffffffffffffff16021790555060408201518160020155905050600260009054906101000a900473ffffffffffffffffffffffffffffffffffffffff1673ffffffffffffffffffffffffffffffffffffffff166323b872dd3330856040518463ffffffff1660e01b8152600401610b3993929190611977565b600060405180830381600087803b158015610b5357600080fd5b505af1158015610b67573d6000803e3d6000fd5b50505050817fc5099b671a0e7e75b6a5d731232dc609f91567fd0a1fb5921f49ee14d60a13b93383604051610b9d929190611e22565b60405180910390a250505050565b6060600460008373ffffffffffffffffffffffffffffffffffffffff1673ffffffffffffffffffffffffffffffffffffffff168152602001908152602001600020805480602002602001604051908101604052809291908181526020018280548015610c6c57602002820191906000526020600020905b8160009054906101000a900473ffffffffffffffffffffffffffffffffffffffff1673ffffffffffffffffffffffffffffffffffffffff1681526020019060010190808311610c22575b50505050509050919050565b610c806112d0565b610c8a600061134e565b565b60606000600260009054906101000a900473ffffffffffffffffffffffffffffffffffffffff1673ffffffffffffffffffffffffffffffffffffffff16631b8df0ee846040518263ffffffff1660e01b8152600401610ceb9190611595565b600060405180830381865afa158015610d08573d6000803e3d6000fd5b505050506040513d6000823e3d601f19601f82011682018060405250810190610d319190611f13565b90506000815167ffffffffffffffff811115610d5057610d4f6115cb565b5b604051908082528060200260200182016040528015610d7e5781602001602082028036833780820191505090505b5090506000805b8351811015610e30576000151560076000868481518110610da957610da8611f5c565b5b6020026020010151815260200190815260200160002060009054906101000a900460ff16151503610e1d57838181518110610de757610de6611f5c565b5b6020026020010151838381518110610e0257610e01611f5c565b5b6020026020010181815250508180610e1990611f8b565b9250505b8080610e2890611f8b565b915050610d85565b50819350505050919050565b60008060009054906101000a900473ffffffffffffffffffffffffffffffffffffffff16905090565b60076020528060005260406000206000915054906101000a900460ff1681565b610e8d6112d0565b6001600660008373ffffffffffffffffffffffffffffffffffffffff1673ffffffffffffffffffffffffffffffffffffffff1681526020019081526020016000206000828254610edd9190611fd3565b9250508190555050565b60056020528060005260406000206000915090508060000160009054906101000a900473ffffffffffffffffffffffffffffffffffffffff16908060010160009054906101000a900473ffffffffffffffffffffffffffffffffffffffff16908060020154905083565b60066020528060005260406000206000915090505481565b600160009054906101000a900473ffffffffffffffffffffffffffffffffffffffff1681565b610f976112d0565b600073ffffffffffffffffffffffffffffffffffffffff168173ffffffffffffffffffffffffffffffffffffffff1603611006576040517f08c379a0000000000000000000000000000000000000000000000000000000008152600401610ffd90612079565b60405180910390fd5b61100f8161134e565b50565b6000600660003373ffffffffffffffffffffffffffffffffffffffff1673ffffffffffffffffffffffffffffffffffffffff1681526020019081526020016000205411611094576040517f08c379a000000000000000000000000000000000000000000000000000000000815260040161108b906120e5565b60405180910390fd5b6000600260009054906101000a900473ffffffffffffffffffffffffffffffffffffffff1673ffffffffffffffffffffffffffffffffffffffff1663eacabe1433846040518363ffffffff1660e01b81526004016110f3929190612105565b6020604051808303816000875af1158015611112573d6000803e3d6000fd5b505050506040513d601f19601f820116820180604052508101906111369190611aaf565b90506001600360003373ffffffffffffffffffffffffffffffffffffffff1673ffffffffffffffffffffffffffffffffffffffff16815260200190815260200160002060008282546111889190611fd3565b925050819055506001600660003373ffffffffffffffffffffffffffffffffffffffff1673ffffffffffffffffffffffffffffffffffffffff16815260200190815260200160002060008282546111df9190611dee565b9250508190555060006007600083815260200190815260200160002060006101000a81548160ff0219169083151502179055505050565b6000763d602d80600a3d3981f3363d3d373d3d3d363d730000008260601b60e81c176000526e5af43d82803e903d91602b57fd5bf38260781b17602052603760096000f09050600073ffffffffffffffffffffffffffffffffffffffff168173ffffffffffffffffffffffffffffffffffffffff16036112cb576040517f08c379a00000000000000000000000000000000000000000000000000000000081526004016112c290612181565b60405180910390fd5b919050565b6112d8611412565b73ffffffffffffffffffffffffffffffffffffffff166112f6610e3c565b73ffffffffffffffffffffffffffffffffffffffff161461134c576040517f08c379a0000000000000000000000000000000000000000000000000000000008152600401611343906121ed565b60405180910390fd5b565b60008060009054906101000a900473ffffffffffffffffffffffffffffffffffffffff169050816000806101000a81548173ffffffffffffffffffffffffffffffffffffffff021916908373ffffffffffffffffffffffffffffffffffffffff1602179055508173ffffffffffffffffffffffffffffffffffffffff168173ffffffffffffffffffffffffffffffffffffffff167f8be0079c531659141344cd1fd0a4f28419497f9722a3daafe3b4186f6b6457e060405160405180910390a35050565b600033905090565b6000604051905090565b600080fd5b600080fd5b6000819050919050565b6114418161142e565b811461144c57600080fd5b50565b60008135905061145e81611438565b92915050565b60006020828403121561147a57611479611424565b5b60006114888482850161144f565b91505092915050565b600073ffffffffffffffffffffffffffffffffffffffff82169050919050565b60006114bc82611491565b9050919050565b6114cc816114b1565b81146114d757600080fd5b50565b6000813590506114e9816114c3565b92915050565b60006020828403121561150557611504611424565b5b6000611513848285016114da565b91505092915050565b6115258161142e565b82525050565b6000602082019050611540600083018461151c565b92915050565b6000806040838503121561155d5761155c611424565b5b600061156b858286016114da565b925050602061157c8582860161144f565b9150509250929050565b61158f816114b1565b82525050565b60006020820190506115aa6000830184611586565b92915050565b600080fd5b600080fd5b6000601f19601f8301169050919050565b7f4e487b7100000000000000000000000000000000000000000000000000000000600052604160045260246000fd5b611603826115ba565b810181811067ffffffffffffffff82111715611622576116216115cb565b5b80604052505050565b600061163561141a565b905061164182826115fa565b919050565b600067ffffffffffffffff821115611661576116606115cb565b5b61166a826115ba565b9050602081019050919050565b82818337600083830152505050565b600061169961169484611646565b61162b565b9050828152602081018484840111156116b5576116b46115b5565b5b6116c0848285611677565b509392505050565b600082601f8301126116dd576116dc6115b0565b5b81356116ed848260208601611686565b91505092915050565b60008060006060848603121561170f5761170e611424565b5b600084013567ffffffffffffffff81111561172d5761172c611429565b5b611739868287016116c8565b935050602084013567ffffffffffffffff81111561175a57611759611429565b5b611766868287016116c8565b92505060406117778682870161144f565b9150509250925092565b600081519050919050565b600082825260208201905092915050565b6000819050602082019050919050565b6117b6816114b1565b82525050565b60006117c883836117ad565b60208301905092915050565b6000602082019050919050565b60006117ec82611781565b6117f6818561178c565b93506118018361179d565b8060005b8381101561183257815161181988826117bc565b9750611824836117d4565b925050600181019050611805565b5085935050505092915050565b6000602082019050818103600083015261185981846117e1565b905092915050565b600081519050919050565b600082825260208201905092915050565b6000819050602082019050919050565b6118968161142e565b82525050565b60006118a8838361188d565b60208301905092915050565b6000602082019050919050565b60006118cc82611861565b6118d6818561186c565b93506118e18361187d565b8060005b838110156119125781516118f9888261189c565b9750611904836118b4565b9250506001810190506118e5565b5085935050505092915050565b6000602082019050818103600083015261193981846118c1565b905092915050565b60008115159050919050565b61195681611941565b82525050565b6000602082019050611971600083018461194d565b92915050565b600060608201905061198c6000830186611586565b6119996020830185611586565b6119a6604083018461151c565b949350505050565b6000602082840312156119c4576119c3611424565b5b600082013567ffffffffffffffff8111156119e2576119e1611429565b5b6119ee848285016116c8565b91505092915050565b600082825260208201905092915050565b7f4f6e6c7920746865206f776e65722063616e207769746864726177207468652060008201527f4e46540000000000000000000000000000000000000000000000000000000000602082015250565b6000611a646023836119f7565b9150611a6f82611a08565b604082019050919050565b60006020820190508181036000830152611a9381611a57565b9050919050565b600081519050611aa981611438565b92915050565b600060208284031215611ac557611ac4611424565b5b6000611ad384828501611a9a565b91505092915050565b7f546f74616c537570706c79206d757374206265203020746f207769746864726160008201527f7720746865204e46540000000000000000000000000000000000000000000000602082015250565b6000611b386029836119f7565b9150611b4382611adc565b604082019050919050565b60006020820190508181036000830152611b6781611b2b565b9050919050565b7f596f7520646f6e2774206861766520616e79204e465400000000000000000000600082015250565b6000611ba46016836119f7565b9150611baf82611b6e565b602082019050919050565b60006020820190508181036000830152611bd381611b97565b9050919050565b600081519050611be9816114c3565b92915050565b600060208284031215611c0557611c04611424565b5b6000611c1384828501611bda565b91505092915050565b7f596f7520617265206e6f7420746865206f776e6572206f662074686973204e4660008201527f5400000000000000000000000000000000000000000000000000000000000000602082015250565b6000611c786021836119f7565b9150611c8382611c1c565b604082019050919050565b60006020820190508181036000830152611ca781611c6b565b9050919050565b7f54686973204e465420697320616c726561647920757365640000000000000000600082015250565b6000611ce46018836119f7565b9150611cef82611cae565b602082019050919050565b60006020820190508181036000830152611d1381611cd7565b9050919050565b600081519050919050565b60005b83811015611d43578082015181840152602081019050611d28565b60008484015250505050565b6000611d5a82611d1a565b611d6481856119f7565b9350611d74818560208601611d25565b611d7d816115ba565b840191505092915050565b60006040820190508181036000830152611da28185611d4f565b90508181036020830152611db68184611d4f565b90509392505050565b7f4e487b7100000000000000000000000000000000000000000000000000000000600052601160045260246000fd5b6000611df98261142e565b9150611e048361142e565b9250828203905081811115611e1c57611e1b611dbf565b5b92915050565b6000604082019050611e376000830185611586565b611e446020830184611586565b9392505050565b600067ffffffffffffffff821115611e6657611e656115cb565b5b602082029050602081019050919050565b600080fd5b6000611e8f611e8a84611e4b565b61162b565b90508083825260208201905060208402830185811115611eb257611eb1611e77565b5b835b81811015611edb5780611ec78882611a9a565b845260208401935050602081019050611eb4565b5050509392505050565b600082601f830112611efa57611ef96115b0565b5b8151611f0a848260208601611e7c565b91505092915050565b600060208284031215611f2957611f28611424565b5b600082015167ffffffffffffffff811115611f4757611f46611429565b5b611f5384828501611ee5565b91505092915050565b7f4e487b7100000000000000000000000000000000000000000000000000000000600052603260045260246000fd5b6000611f968261142e565b91507fffffffffffffffffffffffffffffffffffffffffffffffffffffffffffffffff8203611fc857611fc7611dbf565b5b600182019050919050565b6000611fde8261142e565b9150611fe98361142e565b925082820190508082111561200157612000611dbf565b5b92915050565b7f4f776e61626c653a206e6577206f776e657220697320746865207a65726f206160008201527f6464726573730000000000000000000000000000000000000000000000000000602082015250565b60006120636026836119f7565b915061206e82612007565b604082019050919050565b6000602082019050818103600083015261209281612056565b9050919050565b7f596f7520646f6e2774206861766520616e7920736c6f74000000000000000000600082015250565b60006120cf6017836119f7565b91506120da82612099565b602082019050919050565b600060208201905081810360008301526120fe816120c2565b9050919050565b600060408201905061211a6000830185611586565b818103602083015261212c8184611d4f565b90509392505050565b7f455243313136373a20637265617465206661696c656400000000000000000000600082015250565b600061216b6016836119f7565b915061217682612135565b602082019050919050565b6000602082019050818103600083015261219a8161215e565b9050919050565b7f4f776e61626c653a2063616c6c6572206973206e6f7420746865206f776e6572600082015250565b60006121d76020836119f7565b91506121e2826121a1565b602082019050919050565b60006020820190508181036000830152612206816121ca565b905091905056fea2646970667358221220c0477b550a8979e26bbfb564b1f0dd15792f569dc1e53b58312a0fc8d477561864736f6c63430008120033",
  "linkReferences": {},
  "deployedLinkReferences": {}
}